:020000040000FA
:102C000008110020A52D0000C12D00005D4C000022
:102C100000000000000000000000000000000000B4
:102C2000000000000000000000000000C52D0000B2
:102C30000000000000000000C72D0000EF5700005A
:102C4000B9510000C1510000C9510000D15100002C
:102C5000F1390000255F00001F63000027630000BA
:102C6000F94E0000014F0000C9520000D15200008F
:102C70006D4C0000754C00000D5F0000155F0000FA
:102C80001D5F0000F14E00002D5F0000355F000069
:102C90003D5F0000A9510000BB6500004B520000E1
:102CA0001B340000B1510000AB650000B3650000AB
:102CB0004F500000E94E0000093B00000D360000B7
:102CC00000F002F800F042F80CA030C808382418D0
:102CD0002D18A246671EAB4654465D46AC4201D154
:102CE00000F034F87E460F3E0FCCB6460126334244
:102CF00000D0FB1AA246AB4633431847803E000083
:102D0000A03E0000103A02D378C878C1FAD8520722
:102D100001D330C830C101D504680C607047000091
:102D20000023002400250026103A01D378C1FBD8E7
:102D3000520700D330C100D50B6070471FB5009813
:102D4000019900F09AFA1FBD10B510BD00F0EEFA1F
:102D50001146FFF7F3FF00F059FB00F006FB03B448
:102D6000FFF7F2FF03BC03F0F5FC000070B5054669
:102D70000C46164602E00FCC0FC5103E102EFAD2BC
:102D8000082E02D303CC03C5083E042E07D301CC82
:102D900001C5361F03E021782970641C6D1C761E66
:102DA000F9D270BD0C480D4A002100A1814200D922
:102DB00002440B4A0B4802600B4880470B4800470F
:102DC000FEE7FEE7FEE7FEE7FEE7FEE70848094903
:102DD000094A0A4B70470000000000200000000074
:102DE000002C000008ED00E0115E0000C12C000086
:102DF000080D002008110020080F0020080F0020F7
:102E0000704770B5064600F01BFA056830460B3077
:102E1000C408E400B44201D8002070BD68682A46A6
:102E2000002818D00168A14211D30B462146083171
:102E30008B4208D3436801194B6003681B1B0B606E
:102E40005160046001E041685160001D70BD0246A0
:102E500040680028E6D12146284600F0F9F900280C
:102E6000DCD170BD70B50446051F00F0E9F90068BB
:102E7000002C1AD0446801E020466468002C01D080
:102E8000AC42F9D301680A18AA4204D12A6805465F
:102E90008918016000E0456028684119A14205D108
:102EA0006168696021684018286070BD6C6070BD01
:102EB00001E004C0091F0429FBD28B0701D5028061
:102EC000801CC90700D00270704700290BD0C307CF
:102ED00002D00270401C491E022904D3830702D588
:102EE0000280801C891EE3E70022EEE70022DFE774
:102EF000002203098B422CD3030A8B4211D30023F7
:102F00009C464EE003460B433CD4002243088B42D0
:102F100031D303098B421CD3030A8B4201D394465D
:102F20003FE0C3098B4201D3CB01C01A5241830950
:102F30008B4201D38B01C01A524143098B4201D30A
:102F40004B01C01A524103098B4201D30B01C01A35
:102F50005241C3088B4201D3CB00C01A52418308AF
:102F60008B4201D38B00C01A524143088B4201D3DC
:102F70004B00C01A5241411A00D20146524110463C
:102F800070475DE0CA0F00D04942031000D34042B1
:102F9000534000229C4603098B422DD3030A8B42E7
:102FA00012D3FC22890112BA030A8B420CD3890185
:102FB00092118B4208D3890192118B4204D389016B
:102FC0003AD0921100E08909C3098B4201D3CB01A9
:102FD000C01A524183098B4201D38B01C01A52415E
:102FE00043098B4201D34B01C01A524103098B4262
:102FF00001D30B01C01A5241C3088B4201D3CB004D
:10300000C01A524183088B4201D38B00C01A52412F
:10301000D9D243088B4201D34B00C01A5241411A06
:1030200000D20146634652415B10104601D3404234
:10303000002B00D54942704763465B1000D34042E5
:1030400001B50020C046C04602BD704770477047BA
:10305000F0B5FF252D04C609C209FF2704462E40FE
:103060000137CB093E4348402A402B400746002AFF
:103070006BD0002B69D0AA4267D0AB4265D0002844
:1030800000DA32460125ED0529432C4309022002CE
:10309000090AD21A4B0C7F24E31A434C000A7C44E1
:1030A000E35C7D242404121914145B00A2188842E6
:1030B00001D3521C00E0400049420C465C432411FD
:1030C0005C43DB016415E318040A5C43C502200D70
:1030D0000C4644436419250A5D432303EC0C0D465A
:1030E000654300030019EB184C42A34201D35B185F
:1030F000401CD4052018002B07D05B00C91804D34E
:10310000401C002901D1400840003F2189048A4227
:1031100009D3002A08DC1106090F04D0032149074E
:103120004018C00FC007F0BD0122410012068918E7
:103130007F2252069142F6D205214907C84201D5A5
:103140009010F0BDFF20C005F0BD002F00DA324620
:103150001648AA4207D2AB4205D21902090E17D06F
:10316000F80FC007F0BDFF2563002D06AB42F9D86C
:103170004900A942F6D8AB4201D1A942F2D0A942F6
:1031800001D1002101E061004908D0050843F0BDEC
:103190001102090EFBD0FF200243D005F0BD0A4604
:1031A0000146104654E700009A3A00000000C07F34
:1031B0000102C21504D00123DB071943002A0ADBF0
:1031C0009E239A1A02D40846D0407047FF2241003D
:1031D0001206914201D900207047C017C0437047C2
:1031E0001F22030C02D10F2200041CD0030E01D1B8
:1031F0000002083A030F01D10001121F830F01D111
:103200008000921E002801DB4000521ED20551189A
:10321000021251181922904004D3491C002801D1F0
:103220004908490008467047C10FC90700D040420D
:10323000012292071143D3E701218907D0E77047A4
:1032400000487047AC0C00207047704770477047CB
:1032500038B504460A4600206946C046C0460028E4
:1032600005D002462046009900F040F8012038BD04
:1032700010B5012000F054F810BDF8B5C046C046A6
:10328000054600200C461020C0460646A819A0425C
:103290000DD9324669460020C046C046070001D11C
:1032A00000F03EF80098A04200D00546C419FFF790
:1032B000C7FFF61D07460560F008C00046192846FE
:1032C00000F008F8B44204D031463868A21B00F080
:1032D0000DF8F8BD0021016041608060704710204A
:1032E0007047000000487047A40C002010B503464A
:1032F000406801E003464068002801D08842F9D3C5
:103300001868C3188B4206D0CB1CD808C000001D1B
:10331000411A521A0146081D0A60FFF7A3FD10BDAD
:1033200010B500F031F800F028F810BD7546FFF731
:10333000D9FFAE46050069465346C008C000854621
:1033400018B020B5FFF742FD60BC00274908B6461B
:103350000026C0C5C0C5C0C5C0C5C0C5C0C5C0C5A4
:10336000C0C5403D49008D46704710B50446C04673
:10337000C0462046FFF7F3FC10BD10B5002801D071
:1033800003F0E8F910BD000010B5012805D00021B8
:1033900003A000F021F8012010BD09A1F8E700000A
:1033A00053494752544D454D3A204F7574206F662E
:1033B0002068656170206D656D6F72790000000096
:1033C0003A2048656170206D656D6F727920636F7A
:1033D000727275707465640070B505460C460A20FB
:1033E00000E06D1C03F0B8F9002D06D02878002805
:1033F000F7D102E0641C03F0AFF9002C02D0207872
:103400000028F7D10A2003F0A7F970BD10B502F02B
:10341000FFFC03F067FA002010BD10B5C046C0469F
:1034200010BD1CB501211C2002F05EFC0021684685
:103430000170012181700021C1706A4608210020BD
:1034400001F078FA0821002001F04EFA1CBD0000BE
:1034500010B5104802F0A8FF01F0FDFD00F0C0F823
:10346000FFF7DFFF01F080FF00F081FD01F00CFCB1
:10347000FF20913002F0B2FE02F064FD01210F2026
:1034800002F032FC0B21002003F0A4F803F0B8F89E
:1034900010BD0000D430000030B5024600201402F8
:1034A000034D631901248C40E4435C6130BD00008E
:1034B000000C004070B5024600201502034EAB1907
:1034C0001C692546CD40E807C00F70BD000C0040C8
:1034D00030B5024600201402044D63191C68240C08
:1034E00024048DB22C431C6030BD0000000C004051
:1034F00030B5024600201402044D63195C68240CA8
:1035000024048DB22C435C6030BD0000000C0040F0
:1035100010B5014600200B02034C1A19D3685B0852
:103520005B005B1CD36010BD000C004010B5014671
:1035300000200B02034C1A19D3682415A3431B194E
:10354000D36010BD000C004070B503460A46002051
:103550001C02224D6119CC68AD00AC4315782D03D7
:103560000326360335402C43CC60CC6801256D0220
:10357000AC4355786D020126760235402C43CC6071
:10358000CC687510AC4395782D02761035402C43ED
:10359000CC60CC687025AC43D5782D0170263540C1
:1035A0002C43CC60CC680825AC431579ED00082687
:1035B00035402C43CC60CC680425AC435579AD0034
:1035C000042635402C43CC60CC680225AC43957969
:1035D0006D00022635402C43CC6070BD000C0040CD
:1035E0001CB501211C2002F07FFB00216846017000
:1035F000012181700021C1706A460F21402001F035
:1036000099F90F21402001F06FF91CBD10B5C0469B
:10361000C04610BDFFB50446039813E02378641C30
:103620001E02704000250BE00126F6030640002E26
:1036300003D046005640B0B201E04604300C6D1C89
:10364000082DF1DB0E46491E002EE7D104B0F0BD77
:10365000002004490880044908700449088004498E
:1036600008707047C6000020C3000020C000002082
:10367000C2000020094800880949884204DD002072
:103680000649088007490880064800887D21C9004E
:10369000884202DD0020034908807047AE00002008
:1036A00028230000BE000020064800781E2803DC06
:1036B000054800781E2804DD0020024908700249F0
:1036C000087070470C0000200D00002004480078AE
:1036D000282804DD0020024908700249087070475C
:1036E000120000201300002010B50024624800786A
:1036F000002815D0614800886149884210DB00200D
:103700005D4908705D4908805E4908705E4908702F
:103710005E4908705E49088064215E48FFF7E4FB5B
:103720005D495E4800F084F9002854D0554800787F
:10373000002803D05348007804282DD14E48007843
:10374000002829D1544800F09DFD4E4908700846D4
:103750000078002803D1504800F010F91CE04948D7
:103760000078022803D101204349087014E045483D
:103770000078012805D14049087000203F490880A1
:1037800010BD40480078032806D101203A4908704E
:1037900000203A490880F3E737480078012868D1CB
:1037A00038480078012817D13B4800F085F80028F8
:1037B0005FD03B48006800F085FB002859D001200D
:1037C0003849087000202C4908702E4908702E498D
:1037D00008702F4908804CE02A48007802280CD154
:1037E00000F030FB012030490870002022490870A9
:1037F00025490870234908703BE0224800780328D7
:1038000037D1254800F058F8002832D02748006802
:1038100000F058FB00282CD000241E4880780006B9
:1038200004431C48C078000404431A48007900028D
:103830000443184840790443002C11D0204602F07C
:10384000B3FD01201A4908701A49087000200A497E
:1038500008700C4908700C4908700D49088008E090
:103860000020054908700749087007490870084991
:103870000880002084E70000B5000020AE00002092
:10388000B80B0000B6000020B0000020B1000020FE
:10389000B20000204C0A0020B4000020EC00002000
:1038A0009C000020A8000020A9000020A00000200B
:1038B000AC000020AD000020014628480078012817
:1038C00020DC0878264A254B1B78D0542348007802
:1038D000002807D108780002224A12881043214AA2
:1038E000108009E01D480078012805D108781D4A9C
:1038F000128810431B4A108018480078401C174A51
:10390000107028E00878164A144B1B78D0541348DE
:103910000078401C114A107012480088001D12786F
:10392000904218D10D480078801E0D4A105C0E4A56
:1039300010700A480078401E094A105C0B4A10704B
:10394000002206480078801E054B1A540020034AC6
:103950001070012070470020FCE70000B10000203B
:103960004C0A0020B2000020A7000020A600002082
:1039700010B5FFF7B9FE002010BD000010B50446D9
:103980002078502815D006DC052817D00A280BD03F
:10399000292825D117E077281ED0A02820D10F2173
:1039A000402001F019F81BE00821002001F014F874
:1039B00016E00F21402000F097FF11E008210020C1
:1039C00000F092FF0CE00120064908700020064933
:1039D000087001F03FFC03E001200449087000BFBB
:1039E00000BF10BDAA00002008000020AB0000208E
:1039F00010B5C046C04610BD034618785A2804D1F9
:103A0000802008700120107070471878A52805D113
:103A100080200870022010700120F5E718788028B7
:103A200004D10870032010700120EDE70020EBE7BF
:103A300070B504460D46204601F0F0FB002801D089
:103A4000002070BD2168E068405C28702268501C2E
:103A5000A168FFF74DFA21600120F2E770B5044636
:103A60000D46204601F0E3FB002801D0002070BD88
:103A70006168E06845546268501CA168FFF738FA35
:103A800061600120F3E7000070B504460E4615465C
:103A90002046002805DBC206D20E01219140184ABB
:103AA000116000BF3146204602F018FE012D0AD1F8
:103AB0002046002805DBC206D20E01219140114AA2
:103AC000116000BF1BE02046002816DBC206D20EA4
:103AD000012191400B4A8032116000BF00BF00BF3E
:103AE000BFF34F8F00BF00BF00BF00BF00BF00BFCC
:103AF000BFF36F8F00BF00BF00BF00BF00BF70BD2E
:103B000080E200E000E100E010B5C046C046C046DB
:103B1000C04610BDF0B58BB005460E460024FF2010
:103B20000A9000200990202101A8FFF7DFF9284F13
:103B3000012D0ED0022D0CD0042D0AD0062D08D058
:103B4000082D06D00C2D04D00420099009980BB044
:103B5000F0BD1F48006A0121490288437102012219
:103B60005202114008431A490862002407E0A000ED
:103B7000184908586843A10001AA5050641C082C39
:103B8000F5D30C2D01D1FF20029000241CE0FF2072
:103B90000A9011E00A98411E0A9100280AD00E48A6
:103BA0000B49C8620D48C862A00001A90858A100CD
:103BB000785001E00720CAE7A0003858A10001AA08
:103BC00051588842E6D1641C082CE0D30998BEE71E
:103BD00000000240CC6A00005A5A0000A5A500006F
:103BE00003480449C8620448C8620020086370475B
:103BF0005A5A000000000240A5A50000F7B5FFB02A
:103C000081B006461546012149026846FFF76EF964
:103C10000024002700BF08E01C490968081900F0CB
:103C20004DF969460855601C84B201204002844267
:103C3000F2D300BF1548006800F02AF80028F9D137
:103C400012480088281A84B206E0F05D69460855DB
:103C5000781C87B2601C84B2819840190B490968AE
:103C6000401AA042F1D8002408E06A46115D074AD4
:103C70001268101900F068F9601C84B2012040023B
:103C80008442F2D37FB004B0F0BD00009C0000205D
:103C900008B502460023FF2000902548824202D941
:103CA0000423184608BDFF20009006E00098411E3E
:103CB0000091002801D10920F4E71E48006AC006DF
:103CC000C00F0028F2D100F03BF8FF20009012E076
:103CD0000098411E009100280BD017481549C86272
:103CE0001648C8620846006A80088000801C086286
:103CF00001E00920D6E70F48006A8007800F0228FC
:103D0000E6D100201070FF20009006E00098411ED0
:103D10000091002801D10920C4E70648006AC006C6
:103D2000C00F0028F2D1FFF75BFF1846BAE700008A
:103D3000FFFF0000000002405A5A0000A5A5000045
:103D400004480549C8620548C8620020C0430863AA
:103D5000704700005A5A000000000240A5A500006C
:103D600010B501460020084A084BDA62084ADA62B8
:103D70001A46126A0C239A438B000C2423401A43E0
:103D8000024B1A6210BD00005A5A000000000240A7
:103D9000A5A5000018B502460B460024FF200090A0
:103DA0002448824202D90424204618BDFF200090F6
:103DB00006E00098411E0091002801D10920F4E797
:103DC0001D48006AC006C00F0028F2D1FF200090F5
:103DD00012E00098411E009100280BD017481649A8
:103DE000C8621748C8620846006A80088000401C04
:103DF000086201E00920D8E70F48006A8007800FB9
:103E00000128E6D1FFF79CFF1370FF20009006E029
:103E10000098411E0091002801D10920C5E70648FD
:103E2000006AC006C00F0028F2D1FFF7D9FE204675
:103E3000BBE70000FFFF0000000002405A5A0000EC
:103E4000A5A5000010B50020184908801848006892
:103E500000F034F800021549098808431349088026
:103E600013480068401C00F029F8104909880843ED
:103E70000E490880084600880E49884215D0002463
:103E800008E00B490968081900F018F80A490855B4
:103E9000601C84B205480088001D8442F1DB0021CB
:103EA000054A02480088001D115410BDA4000020DE
:103EB0009C000020FFFF0000B00A002001460878A7
:103EC0007047000070B5044600231A4A1A4801885A
:103ED0001A48FFF79FFB0546E8B21949097888425E
:103EE00020D128121749097888421BD1154801783A
:103EF000124A921E10480088801C11541048017804
:103F00000D480088C01C11540B480088001D0A4948
:103F10000880A2B2084601880848801EFFF76EFE9E
:103F2000012070BD64210548801EFEF7DDFF0020E2
:103F3000F7E7000021100000B20000204E0A002028
:103F4000A6000020A700002070B504460D462946B3
:103F50002046FFF71FFF002807D103E0294620462F
:103F6000FFF718FF2078A842F8D1012070BD1CB5DA
:103F700001211C2001F0B8FE0121684601700021DA
:103F800001714170012181700021C1706A460921CF
:103F9000402000F0CFFC6A460821402000F0CAFC17
:103FA0006A460621402000F0C5FC6A4604214020F4
:103FB00000F0C0FC6A460321402000F0BBFC6A46CA
:103FC0000F21002000F0B6FC6A460721C02000F057
:103FD000B1FC6A460621C02000F0ACFC0021684616
:103FE00001706A460E21802000F0A4FC6A460F2171
:103FF000802000F09FFC6A460C21402000F09AFCD3
:104000006A460D21402000F095FC6A460E214020B2
:1040100000F090FC6A460B21002000F08BFC6A4601
:104020000C21002000F086FC1CBD000008B53548BE
:10403000007800281FD169463348FFF7F9FC0028B3
:104040000ED0684600F0EAF900F038FA002803D0F4
:1040500000202E49088008BD00202C4908804EE031
:104060002B48008800284ADD28480088322846DB93
:10407000FFF7EEFA43E02348007801283FD12548B6
:10408000007800283BD101F041FB69461E48FFF74C
:10409000CFFC00281DD01E480088401C1C49088009
:1040A000684601F017FB1C480088801C18490988E5
:1040B00088420AD1A521880702F05AFA0020114946
:1040C0000870FFF7C5FA0020C5E700200F490880F7
:1040D00015E011480088801C0D49098888420ED0DF
:1040E00000210E4800F039FF002808D1A5218807DB
:1040F00002F03EFA002003490870FFF7A9FA0020F9
:10410000A9E70000C80000203C020020BE000020FB
:10411000C600002009000020C0000020000200406E
:1041200010B501201C4908705A21800702F020FABE
:104130000121880702F01CFA184801780120800745
:1041400002F016FA154841780120800702F010FAB3
:10415000124881780120800702F00AFA0F48C178DE
:104160000120800702F004FA0C4841780120800702
:1041700002F0FEF9094841790120800702F0F8F9C0
:10418000064881790120800702F0F2F9A52188070D
:1041900002F0EEF910BD0000310000209200002076
:1041A00010B5C8210648FEF79FFE0020054908808B
:1041B00005490870054908800549087010BD0000D0
:1041C000140B0020D8000020DA000020DC000020C2
:1041D000E100002030B503460C460021002200BF5C
:1041E0003EE0881C185C80282FD1C81C185C012870
:1041F0000BD15A20A054481C81B2501C82B21C48DA
:104200000088401C1A4D288028E0C81C185C022831
:104210000BD1A520A054481C81B2501C82B2144876
:104220000088401C124D288018E0C81C185C032828
:1042300014D18020A054481C81B2501C82B20C487A
:104240000088401C0A4D288008E0881C185C8028E3
:1042500004D0881C185CA054501C82B2481C81B247
:1042600004480088C01E8842BBDC002030BD00002E
:10427000E6000020D800002002461068C840C007B1
:10428000C00F704701460878FE2808D10F48007813
:10429000002804D101200D4A1070042070470B48FB
:1042A000007801280FD10878012800D1F6E70878B6
:1042B000032801D10220F1E70878512801D1032019
:1042C000ECE70020EAE70020E8E70000B00000206B
:1042D00001461F480078002810D108785A280DD1CF
:1042E00008781C4A1C4B1B88D0541B480088401C73
:1042F000194A10800120164A107027E014480078EF
:1043000001280DD10878A5280AD00A781148124B47
:104310001B88C25410480088401C0F4A108015E0CA
:104320000B480078012811D10878A5280ED10A7809
:104330000848094B1B88C25407480088401C064A9D
:1043400010800220024A1070012070470020FCE714
:10435000DA000020140B0020D80000200246074895
:104360000078012804D1D000054BC018405C70478C
:10437000D000044BC018405CF9E70000EB000020BF
:10438000320000206200002010B50221002000F061
:10439000B9FA002807D00221402000F0B3FA002823
:1043A00001D0012010BD0221002000F0ABFA00284E
:1043B00007D10221402000F0A5FA002801D00020FA
:1043C000F0E70221002000F09DFA002807D002212A
:1043D000402000F097FA002801D10320E2E70020F6
:1043E000E0E7000070B50025002400BF0DE062008A
:1043F000084B995C6200084B985C00F083FA002837
:1044000002D10120A0400543641C082CEFDB2846A4
:1044100070BD0000106B0000006B000000B502468C
:104420001078552807D122480078002803D10120B0
:104430001F49087039E01078AA2807D11C48007875
:10444000012803D102201A4908702EE0184800788C
:1044500002280DD117480078002809D11078164994
:1044600009880843144908800120124908701CE09B
:104470000F48007802280ED10E48007801280AD192
:10448000107800020C49098808430B490880022073
:104490000849087009E008480088042805DA05483A
:1044A0000078022801D1FFF7D3F8002000BD0000FA
:1044B000C3000020C2000020C0000020194800787E
:1044C000012803D017480078022808D11648007840
:1044D000002804D115480088401C1449088012485F
:1044E0000078012803D010480078022808D10F482E
:1044F0000088042804DA0D480088401C0B49088015
:104500000848007802280BD107480078022807D114
:1045100007480088042803DB01200649087070471B
:104520000020FCE7C3000020C2000020C6000020DD
:10453000C0000020C800002010B504462078512893
:1045400030D008DC05281BD00A280FD029281CD021
:10455000502833D10FE052282CD077281ED0A02825
:104560002CD10F21402000F037FA27E0082100204D
:1045700000F032FA22E00F21402000F0B5F91DE0F2
:104580000821002000F0B0F918E001200C49087063
:1045900000200C49087000F05DFE0FE001200A4980
:1045A00008700BE0022009490870E120400200F089
:1045B00099FD03E001200649087000BF00BF10BD4F
:1045C000E500002008000020E0000020AC000020F2
:1045D000E800002070B5002500241548807800020E
:1045E00004431348C07804430023124A214610486C
:1045F000001DFFF70FF80546002D16D00C49601D71
:10460000085CE9B2884210D10949201D085C2912D2
:1046100088420AD10848008882B2201D81B204482D
:10462000801CFFF7EBFA012070BD0020FCE70000C2
:10463000DC0B0020211000009C00002070B500253C
:104640000E480068FFF73AFC000205430B4800687B
:10465000401CFFF733FC0543002408E007490968C4
:104660000819FFF72BFC06490855601C84B2281D69
:104670008442F3DB0021024A115470BD9C000020EB
:10468000B00A002038B500241B48007800281FD14C
:1046900069461A48FFF7CCF900280CD000201849C9
:1046A00008806846FFF714FE002823D00120124935
:1046B0000870002038BD1348007801281AD110482E
:1046C00000884B210901884214DBFFF769FD11E0E6
:1046D0000948007801280DD100F07EFD0446002C29
:1046E00005D009490948FFF775FD2046E2E700209B
:1046F000014908700020DDE7E1000020EC00002007
:10470000DC000020DA000020DC0B0020140B00206D
:1047100010B55A21480701F02BFF0121880701F04D
:1047200027FF4821C80601F023FF0221480701F0B6
:104730001FFF0521880701F01BFF002101208007D2
:1047400001F016FFFFF720FE0B49087001200870EA
:10475000084601780120800701F00AFF522148072E
:1047600001F006FF5121880701F002FFA52188070B
:1047700001F0FEFE10BD0000EB000020FEB521A1FF
:1047800003C9029101900020009000241F48006896
:10479000FFF794FB000204431C480068401CFFF72D
:1047A0008DFB0443201D4004040C26463046FEF7D2
:1047B00028FB05461648844204D1052101A800F0D3
:1047C00047FF1AE02746E10FC919C905080E2A4616
:1047D000104900F00DFE009001216846C1710421CE
:1047E00001A800F019F82846009900F015F868466D
:1047F000017A0120800701F0BBFE2846FEF732FB5C
:10480000FEBD00005A02FE02A50000009C00002030
:10481000FFFF0000B00A002070B505460E460024D8
:1048200006E0295D0120800701F0A2FE601CC4B2F1
:10483000B442F6D370BD000030B589B004461EA264
:1048400007CA06AB07C3142101A8FEF74FFB0025DA
:10485000502C12D11B48008801126846C1761948B5
:104860000178684601771848008801126846417748
:10487000154801786846817707E0522C05D1002160
:104880006846C1760177417781776846C47701AA87
:1048900006A90A2000F0ACFD05465A2168460171C0
:1048A00001214171A521681E01AA1154294601A8C0
:1048B000FFF7B2FF09B030BD000054000000000057
:1048C000530000000E0000201000002070B50446C8
:1048D0000D46044960180022294600F079FF0020A7
:1048E00070BD0000100E024070B504460D4604492C
:1048F00060180122294600F06BFF002070BD000007
:10490000140D024070B504460D460349601829464F
:10491000FFF7B2FC70BD0000040D024070B5044604
:104920000D46034960182946FFF7A6FC70BD00003C
:10493000000E024070B504460E4615461E4960182A
:104940000022314600F044FF00201C496118B200EB
:1049500088502A7818490C396018314600F038FF21
:104960006A78154910316018314600F031FFAA7895
:10497000114914316018314600F02AFFEA780E49D7
:1049800018316018314600F023FF2A790A49203196
:104990006018314600F01CFF094880680121C903F6
:1049A00088436979C9030122D203114008430449AD
:1049B0008860002070BD00000C0D0240000C024019
:1049C000000F024010B50346024818188C0002512F
:1049D000002010BD000C024070B504460D4604498D
:1049E00060180122294600F0F3FE002070BD00008F
:1049F000100D024010B5FFF745FE2F49087008461C
:104A00000078012814D12D480078FE2803D12B48C6
:104A100040782A4908702948FFF78EFD0020264972
:104A20000870C8212548FEF75FFAFFF7B9FB41E09F
:104A300021480078022833D120480078FE2814D17C
:104A40001E484078012810D1FFF7C4FD002802D08D
:104A500001201B490870002017490870C821174819
:104A6000FEF742FAFFF79CFB24E014480078FE288A
:104A700020D11248407803281CD164211148FEF748
:104A800033FA012010490870FFF7D8FD00200A49C9
:104A90000870C8210948FEF727FAFFF781FB09E0F3
:104AA00005480078032805D1012008490870002036
:104AB0000149087010BD0000E9000020DC0B002057
:104AC000E2000020B00A0020E3000020E400002003
:104AD00010B550480078012806D15020FFF7ACFEF1
:104AE00000204C49087094E04B480078012806D11A
:104AF0005220FFF7A1FE00204749087089E047488F
:104B00000078012805D1FFF703FE00204349087013
:104B10007FE043480078012805D1FFF701FB002022
:104B20003F49087075E03F480078012807D105210A
:104B30003D48FFF771FE00203A49087069E03B48A4
:104B40000078012805D1FFF719FE002037490870C9
:104B50005FE037480078012807D105213548FFF785
:104B60005BFE00203249087053E03348007801288A
:104B700012D100203049087030480088304A12882D
:104B8000801AC11E2F4800F053FDC8212D48FEF7A2
:104B9000ABF9FFF705FB3CE02B480078012838D142
:104BA00000202949087000BF7F204002FFF770F8FD
:104BB0000028F9D1A0217F204002FFF7C5F950213C
:104BC0002248FFF7C1F9AA212048401CFFF7BCF991
:104BD00000211E48801CFFF7B7F904211C48FFF78D
:104BE0001BFE00BF00BF00BF00BF00BFBFF34F8F61
:104BF00000BF00BF00BF17481749C86000BF00BF13
:104C000000BFBFF34F8F00BF00BF00BF00BF00BF9A
:104C1000FDE710BD0A0000200B000020E00000208E
:104C2000E5000020E2000020CA000020E300002090
:104C3000AD000020CF000020E4000020D8000020BC
:104C4000E6000020DC0B0020E800002001FE000050
:104C5000D40000200400FA0500ED00E008B50020B3
:104C6000009000BF00980028FCD008BD10B5C046D9
:104C7000C04610BD10B5C046C04610BD002303603D
:104C800043608260C1607047782007490870FF2048
:104C9000487055208870FF20C87008710020487146
:104CA00079208871704700009200002010B501F053
:104CB000DCFD01287BD17E480078142877DD7D4813
:104CC0000078002808D17C4908707C4801F0D9FDA3
:104CD000012078490870E9E0774800781428FADD67
:104CE000774801F0CEFD7649744801F0A1FD012816
:104CF0007ED1724AD1781078FFF730FB7149088075
:104D00006E4A11795078FFF729FB6F4908806B4A8A
:104D100051799078FFF722FB6C49088067488079C9
:104D2000012820D1674800886949098888421AD03B
:104D30006448007867494870FF20C87008710120F6
:104D400048714420887064480078002802D100F03F
:104D5000ABFB05E060480078022801D1FFF7E0F9DD
:104D600001205E49087055488079022829D15548AC
:104D7000008857490988884205D153480088584916
:104D8000098888421DD04F480078524948704E48E3
:104D90000078C870FF200871022048714420887094
:104DA0004D480078002803D100F07EFB06E04EE07D
:104DB00049480078022801D1FFF7B2F9012047499C
:104DC00008703E488079032831D13E480088404928
:104DD000098888420BD13C480088414909888842AB
:104DE00005D13A4800883F49098888421FD000E031
:104DF00029E0344800783749487033480078C87053
:104E00003248007808710320487144208870324885
:104E10000078002802D100F047FB05E02E4800781A
:104E2000022801D1FFF77CF901202C4908702548A0
:104E30000088274908802448008829490880234899
:104E400000882849088000201A4908702EE023486D
:104E5000007800282AD078201E4908701948007868
:104E600048705520887018480078C8701748007836
:104E70000871124880794871792088711648007845
:104E8000002802D100F010FB05E01348007802284A
:104E900001D1FFF745F900200D490880104908802D
:104EA000104908800D4908700149087010BD0000C4
:104EB0001300002022000020120000202300002008
:104EC0002A00002016000020180000201A000020F0
:104ED0001C00002092000020AC00002014000020E4
:104EE0001E0000202000002010B5C046C04610BDA6
:104EF00010B5C046C04610BD10B500F0C3F810BDD7
:104F000010B5C046C04610BD70B504460D4600221F
:104F100029462046143000F05BFC002070BD70B5BF
:104F200004460D4600222946201D00F051FC0020B9
:104F300070BD70B504460D4601222946201D00F0C3
:104F400047FC002070BD70B504460D46012229467D
:104F5000201D00F03DFC002070BD70B504460D46DC
:104F60000026294620461030FFF786F906463046CF
:104F700070BD0000F0B587B005460C460127224AF7
:104F800007CA04AB07C300200390002C02D1042001
:104F900007B0F0BD00206860608861780843E18850
:104FA0000843A18808432178084368602078402896
:104FB00002D02078C02824D1E088C117C90D091873
:104FC0004912890004AA515A8EB2E168B1400846DC
:104FD000FEF732F90290A068FEF72EF901900299CF
:104FE000FEF736F803903F210906039801F0B4FC60
:104FF0000290FEF7DDF880B2A86104212846FFF791
:1050000098FF00273846C3E7F46A000001460868A5
:10501000C0B2704770B504460D4600BF032120465C
:10502000FFF79BFF0028F9D02068000A0002E9B2D0
:105030000843206000BF01212046FFF78EFF0028B3
:10504000F9D001212046FFF75FFF002070BD10B5A9
:10505000C046C04610BD1CB501211C2000F044FE16
:105060000021684601700171012181700021C17029
:105070006A460D218020FFF75DFC0D218020FFF79F
:10508000ABFC1CBD10B502211348FFF766FF0028DA
:1050900003D002211048FFF737FF04210E48FFF725
:1050A0005CFF002803D004210B48FFF72DFF0021EF
:1050B0000948FFF752FF00280DD000210648FFF7EE
:1050C00023FF0548FFF7A2FF04490870084601784E
:1050D0000348FEF7C3FC10BD00020040070000209B
:1050E0003C02002010B586B00446062104A801F059
:1050F00034FB1021684601F030FB01211C2000F038
:10510000F3FD002168460174012181740021C174FE
:1051100004AA0A214020FFF70DFC04220A214020A6
:10512000FFF750FC01216846017404AA0B214020BE
:10513000FFF700FC03220B214020FFF743FC012175
:10514000022000F0D1FD002168464180818000F0FE
:10515000F7FC029000216846C18003944021017051
:1051600069460E48FFF706FF0122D2020C490D489E
:10517000FFF784FD00210948FFF7C6FE002107481C
:10518000FFF7CDFE00210548FFF7DDFE01221146A5
:105190000820FEF779FC06B010BD000000020040B8
:1051A0004C0200203C02002010B5C046C04610BD95
:1051B00010B5C046C04610BD10B500F023F810BDB4
:1051C00010B5C046C04610BD10B5C046C04610BDA3
:1051D00010B5C046C04610BD10B50948407801283A
:1051E00000D110BD06484078022800D1F9E70448F4
:1051F0004078032800D1F4E7FEF7D2FF0020F0E763
:10520000140B002010B503210020FFF787FB0128B5
:1052100003D103210020FFF759FB10BD01464A6866
:105220000868904201D1012070470020FCE710B5CA
:1052300004466268501CA168FDF75AFE206881424E
:1052400001D1012010BD0020FCE710B5C046C046CA
:1052500010BD000010B500214020FFF753FB0028CF
:1052600015D113480078002811D101201049087089
:105270001049114800F0C4FE0120104908700821AF
:105280000020FFF7A9FB01200D4908700FE0002165
:105290004020FFF737FB002809D005480078002898
:1052A00005D000200249087001200649087010BD91
:1052B00008000020100000200E0000200A0000203E
:1052C000090000200B00002010B5C046C04610BDEC
:1052D00010B5C046C04610BD0CB51A4802786846E5
:1052E0000270194802786846427018480278684689
:1052F0008270174802786846C2701648027868467D
:10530000027115480278684642711448027868466E
:105310008271134802786846C271002100BF09E01B
:105320006846405C012803D10E4A107000200CBD75
:10533000481CC1B20829F3D300200A4A107000BFEC
:10534000F5E700000A0000200B000020E00000202C
:10535000E5000020E2000020E3000020AD00002076
:10536000E4000020090000201CB501211C2000F0F1
:10537000BBFC002168460170017101218170002190
:10538000C1706A4602210020FFF7D4FA6A46022162
:105390004020FFF7CFFA02210020FFF71DFB02217A
:1053A0004020FFF719FB1CBD70B50546002400BF67
:1053B00016E00120A0402840002808D062000A4BD7
:1053C000995C6200094B985CFFF78EFA07E0620077
:1053D000054B995C6200054B985CFFF7FDFA641C75
:1053E000062CE6DB70BD00002E6B0000206B000079
:1053F00030B505460C460021002300BF28E0E05CE4
:105400005A2808D180205054481C81B201205054A1
:10541000481C81B21AE0E05CA52808D180205054D5
:10542000481C81B202205054481C81B20EE0E05C5E
:10543000802807D15054481C81B203205054481C86
:1054400081B203E0E05C5054481C81B2581C83B226
:10545000AB42D4DBC8B230BD10B54821C80601F05C
:1054600087F80221480701F083F80521880701F039
:105470007FF800210120800701F07AF8FEF784FF11
:1054800008490870084601780120800701F070F88B
:105490005221480701F06CF85121880701F068F8A3
:1054A00010BD0000EB00002010B501201649087067
:1054B000164801780120800701F05AF81348417816
:1054C0000120800701F054F81048817801208007FE
:1054D00001F04EF80D48C1780120800701F048F82E
:1054E0000A4841780120800701F042F807484179D5
:1054F0000120800701F03CF80448817901208007F1
:1055000001F036F810BD00003100002092000020AC
:1055100010B526480078012805D1002023490870DD
:10552000502000F0A5F822480078012807D1522029
:1055300000F09EF800201E4908701E4908701E48A1
:105540000078012805D1FFF787FF00201A4908706D
:105550002AE01A480078012805D1FFF7A5FF0020AE
:105560001649087020E016480078012807D102216A
:10557000144800F06DF800201149087014E012483A
:105580000078012805D100F025F800200E490870A8
:105590000AE00E480078012806D105210C4800F0E9
:1055A00057F800200949087010BD00000A000020CB
:1055B0000B00002009000020AB000020AA00002002
:1055C000A8000020BC000020A9000020AD000020A1
:1055D000B700002038B512A000680090114800689C
:1055E000FEF76CFC04460F480068401CFEF766FCA2
:1055F0000546FF2C06D1FF2D04D10221684600F09C
:1056000027F80CE00120694648700221684600F046
:105610001FF805480188091D044800F019F838BD35
:10562000FE0200009C000020A4000020B00A002020
:1056300070B505460E46002405E0295D0348FFF7D6
:10564000E9FC601CC4B2B442F7D370BD0002004054
:1056500070B505460E46002406E0295D012080074E
:1056600000F086FF601CC4B2B442F6D370BD0000E7
:105670001CB5044613A103C901910090502C12D10E
:105680001248008801126846417010480178684647
:1056900081700F48008801126846C1700C4801787B
:1056A0006846017107E0522C05D10021684641701F
:1056B0008170C1700171684644710721FFF7C8FF0E
:1056C0001CBD000054000000000053000E0000202C
:1056D000100000201CB504466A4601A92046FEF7CA
:1056E0008BF900280CD0684601790120800700F072
:1056F0003FFF684601780120800700F039FF04E091
:1057000021780120800700F033FF1CBD0EB52D4825
:105710000078022854D12C480078022850D15A2110
:10572000400700F025FF03210120800700F020FF43
:105730005521880700F01CFFAA21480700F018FF38
:105740002248007802906A4601A902A8FEF754F99F
:1057500000280CD0684601790120800700F008FF7E
:10576000684601780120800700F002FF05E06846E6
:10577000017A0120800700F0FBFE14480088001227
:1057800002906A4601A902A8FEF736F900280CD05B
:10579000684601790120800700F0EAFE684601783A
:1057A0000120800700F0E4FE05E06846017A012050
:1057B000800700F0DDFE00200349087001490870F1
:1057C0000EBD0000C3000020C2000020C000002069
:1057D00010B5012A05D1036801248C4023430360DE
:1057E00004E0036801248C40A343036010BD10B59E
:1057F000C046C04610BD70B50446002520780300A1
:1058000000F05EFF0504050C10181C0018E00320D2
:1058100000F0CEFA032000F095FA11E0032000F02A
:105820006FFA0DE00321084600F0D0FA032000F0E3
:1058300099FA05E0072000F045FA01E0042500BFD1
:1058400000BF2078012100F00BF8207800F09AFAD0
:10585000607800F085F9A07800F096F9284670BDD0
:10586000F8B505460C46002700F01EFF002C01D0BD
:10587000012000E0002004465148066A2B0000F099
:105880001FFF050417394D7298004D480068400805
:105890004000E107C90F08434949086000BF002CD8
:1058A00005D04748C0680005C00F0028F7D082E047
:1058B0004348006A012109078843401840490862AB
:1058C0004048C068032108433E49C8603C4800681E
:1058D00002218843610002221140084338490860D0
:1058E00000BF002C05D0364800694006C00F0028D4
:1058F000F7D060E03248006804218843A100042208
:10590000114008432E49086000BF002C05D02C48E8
:105910004069C004C00F0028F7D04CE02848006A56
:105920000121090788434018254908622548403865
:10593000C06803218903084322494039C8602048D0
:10594000006808218843E1000822114008431C49EF
:10595000086000BF002C05D0194880694006C00FC0
:105960000028F7D027E01648006A0121090488437F
:105970004018134908621448006840084000401C61
:1059800011490860142000F0F9FE0D48006810214C
:10599000884321011022114008430949086000BFD3
:1059A000002C05D00648C06B4003C00F0028F7D07C
:1059B00001E0042700BF00BF014806623846F8BD79
:1059C00000200040C00D02400024004030B589B0E6
:1059D00000241422564904A8FDF7C8F9544814308D
:1059E00000680390002000900190029051480188C7
:1059F000684601814F4841886846C1804D4881888A
:105A0000684681804B48C1886846418049482030BB
:105A1000018868460180484800680006450F2B0051
:105A200000F04EFE05042E303E4178004248C0682A
:105A30004005400D69460989884201D1089C1EE055
:105A40003D48C0684005400D6946C988884201D17B
:105A5000079C14E03848C0684005400D69468988B5
:105A6000884201D1069C0AE03348C0684005400DD9
:105A700069464988884201D1059C00E0049C4BE0BE
:105A80002E4C49E0684600882B4949698905890DF3
:105A9000884202D16846C48901E0684684893BE0B7
:105AA0000124E40338E02448C06B8007800F0328FA
:105AB00029D1684600892049C9684905490D8842AD
:105AC00001D1089C20E06846C0881B49C968490587
:105AD000490D884201D1079C16E068468088164926
:105AE000C9684905490D884201D1069C0CE0684609
:105AF00040881149C9684905490D884201D1059C72
:105B000002E0049C00E00D4C0B48C06BC005000F88
:105B1000444301E0002400BF00BF0748006840057F
:105B2000410F2046C8400446204609B030BD000061
:105B3000B46A0000000C10000020004000127A003F
:105B400010B50024FFF742FF044604480068C00473
:105B5000810F2046C8400446204610BD002000406A
:105B600010B5044600F0A0FD0648006807210902B0
:105B700088432102072212021140084301490860AC
:105B8000002010BD0020004010B5044600F08CFD40
:105B9000064800680321C9028843E1020322D202B9
:105BA0001140084301490860002010BD002000405A
:105BB0001EB50146002200200090019002903D4851
:105BC0000388684603813B4843886846C380394858
:105BD0008388684683803748C388684643808878CE
:105BE00003282DD168460089334BDB685B055B0DCC
:105BF000984202D1C878022820DC6846C0882E4B23
:105C0000DB685B055B0D984202D1C878022815DC81
:105C100068468088284BDB685B055B0D984202D1A3
:105C2000C87803280ADC68464088234BDB685B059C
:105C30005B0D98420CD1C878062809DD06201EBDF0
:105C4000C8781E4B58431E4B984201D90620F6E7F0
:105C50001948C06B03235B0398430B785B03032451
:105C6000640323401843144BD8631846C06B1C23AD
:105C700098434B789B001C24234018430E4BD86359
:105C80001846C06BFF23E1339843CB785B01FF24B8
:105C9000E13423401843084BD8631846C06B800892
:105CA00080008B789B079B0F1843034BD8631046EB
:105CB000C5E70000000C10000020004000127A0030
:105CC000006CDC0210B501460020064AD26B0723A7
:105CD000DB039A43CB030724E40323401A43014B1D
:105CE000DA6310BD0020004070B504460D462A4618
:105CF00021460248FFF76CFD002070BD20200040C7
:105D000010B501460020064A526903239B029A43BC
:105D10008B020324A40223401A43014B5A6110BD95
:105D20000020004010B501460020054A12690C23EE
:105D30009A438B000C2423401A43014B1A6110BD77
:105D40000020004010B501460020054A12693023AA
:105D50009A430B01302423401A43014B1A6110BDB2
:105D60000020004010B501460020054A926930230A
:105D70009A430B01302423401A43014B9A6110BD12
:105D80000020004070B504460025264600F08CFC3B
:105D900006480068E02188437101E0221140084371
:105DA0000249086000F02CF8284670BD0020004031
:105DB00001460020044A1269920892008B079B0F4B
:105DC0001A43014B1A6170470020004030B502466B
:105DD00000200A4B9B690C24A34394000C252C4003
:105DE0002343064CA36123469B699B089B008C07B9
:105DF000A40F2343014CA36130BD000000200040EC
:105E000010B5FFF7E3FD0149086010BD0000002058
:105E100010B50D4949888805800D0C494969890AE2
:105E200089020143094A5161074920390989480516
:105E3000400D1146C968C90AC9020143D160FFF784
:105E4000DFFF00F0F1FB10BD200C1000002000402F
:105E50001CB5FFF7BBFD1F49884204D1FFF770FE58
:105E60001C49884231D001211F20FFF73DFF02204D
:105E7000FDF776FF0120FFF755FF0320FFF798FF9E
:105E80000320FFF75FFF01210846FFF7E9FC01212E
:105E90006846017004214170002181700621C170A3
:105EA000FFF786FE0720FFF70DFF01210420FFF713
:105EB000D7FC04216846017100214171817101A85C
:105EC000FFF799FC0420FFF75DFF142000F084FC2D
:105ED0001CBD0000006CDC0210B50B480088962841
:105EE00011DB0D218020FEF70DFD002804D00D21CF
:105EF0008020FEF7F9FC03E00D218020FEF76CFD09
:105F000000200149088010BD0400002010B500F0F9
:105F100001F910BD10B5C046C04610BD10B5C04651
:105F2000C04610BD10B5C046C04610BD10B5C04635
:105F3000C04610BD10B5C046C04610BD10B5C04625
:105F4000C04610BD1CB501211C20FFF7CDFE00216D
:105F50006846017001714170012181700021C1709A
:105F6000012141716A4604210020FEF7E3FC04216F
:105F70000020FEF731FD0021684681700121C170CB
:105F80006A4607210020FEF7D5FC6A46052100205D
:105F9000FEF7D0FC07210020FEF7A6FC052100201B
:105FA000FEF7A2FC01216846017081700021C170DA
:105FB0006A4603210020FEF7BDFC6A460621002048
:105FC000FEF7B8FC6A4600214020FEF7B3FC1CBD7A
:105FD00070B5044604210020FEF786FC012000F085
:105FE000CDFB204600F062F800F018F805460120CD
:105FF00000F0C4FB04210020FEF7EEFC284670BD33
:10600000F8B504460D469020FFF7E2FF06B2D02017
:10601000FFF7DEFF07B226802F80F8BD70B50025A0
:10602000002607210020FEF75FFC00BF03210020AF
:10603000FEF768FC0028F9D005210020FEF754FC8B
:10604000012000F09BFB05210020FEF7C5FC01208C
:1060500000F094FB05210020FEF746FC00BF032161
:106060000020FEF74FFC0028F9D100241AE005219A
:106070000020FEF739FC012000F080FB0521002004
:10608000FEF7AAFC06210020FEF73CFC0646012094
:1060900000F074FB0B20011B30468840284385B27A
:1060A000601CC4B20C2CE2DB284670BD70B50546FE
:1060B00005210020FEF718FC07210020FEF714FC44
:1060C000012000F05BFB002420E00720011B284694
:1060D0000841C007C00F002804D007210020FEF7A8
:1060E0007BFC03E007210020FEF7FEFB05210020DA
:1060F000FEF772FC012000F041FB05210020FEF7B5
:10610000F3FB012000F03AFB601CC4B2082CDCDB7E
:1061100070BD000010B500210846FDF7CBF901283D
:1061200045D123480088401C214908802148007837
:10613000401C2049087020480078401C1E49087007
:106140001E480088401C1D4908801D480088401CCE
:106150001B4908801B480078012804D11A480078A0
:10616000401C1949087000214020FEF7CBFB002895
:1061700005D116480078401C1449087004E0144802
:106180000078401C1249087012480078012804D198
:1061900011480088401C10490880FDF797FAFDF768
:1061A00083FAFDF767FA00210846FDF775F910BD7F
:1061B000040000201200002013000020AE00002088
:1061C000BE000020AC000020DE0000200C000020FB
:1061D0000D000020DA000020DC00002070B586B041
:1061E0000446142101A800F0B8FA01210820FFF7A5
:1061F0007BFD00216846017141720721C1710121B7
:106200008172002101728171417101A90020FDF7A5
:106210009BF901200004001B85B229460020FDF7F0
:1062200057F901200004001B86B231460020FDF71B
:106230005FF900210846FDF72FF90020FDF776F9F8
:10624000012203210E20FDF71FFC0020FDF760F95D
:1062500006B070BD10B513480078012820D1FEF7B4
:10626000C9FBFEF735FC10480078052809D10F4816
:1062700000F09AF800200B4908700D4908700A498F
:1062800008700B48007864280ADB0120094908706F
:1062900000200749087004480078401C0249087033
:1062A00010BD0000AC000020EA000020D430000047
:1062B000DE000020AD0000201CB50621684600F07D
:1062C0004CFA01211C20FFF70FFD01210020FFF7F0
:1062D0000BFD002168460170012181704171002190
:1062E00041700171C1706A4609210020FEF722FB4E
:1062F00009210020FEF770FB0121684601708170C2
:106300004171417000210171C1706A460A2100206B
:10631000FEF710FB0A210020FEF75EFB1CBD10B546
:1063200000F006F810BD10B5C046C04610BD000014
:1063300010B50221480700F0C0F8002808D002215B
:10634000480700F09BF800210120800700F096F834
:106350000421080700F0B1F8002808D0042108073C
:1063600000F08CF800210120800700F087F8002160
:106370000120800700F0A1F800280FD000210120A3
:10638000800700F07BF80120800700F0EDF8044959
:106390000870084601780348FDF760FB10BD000057
:1063A00006000020EC00002010B586B0044606214F
:1063B00004A800F0D2F91021684600F0CEF940217F
:1063C000684601700021418003948180FFF7B8FB8B
:1063D000029001211C20FFF787FC01210020FFF71C
:1063E00083FC0021684601740121817441750021FC
:1063F00041740175C17404AA09210020FEF79AFABC
:10640000012209210020FEF7DDFA0121880700F0B2
:1064100035F869460120800700F05CF801216846E4
:10642000017481744175417400210175C17404AA1D
:106430000A210020FEF77EFA01220A210020FEF741
:10644000C1FAFF2241320B490B48FEF717FC00212D
:106450000120800700F012F800210120800700F0E1
:1064600022F8012200210620FDF70EFB002006B0D5
:1064700010BD0000FC000020EC00002070B50446B8
:106480000D460022294620461430FFF7A1F90020CE
:1064900070BD70B504460D4601222946201DFFF748
:1064A00097F9002070BD70B504460D4601222946BB
:1064B000201DFFF78DF9002070BD70B504460D4614
:1064C0000026294620461030FDF7D6FE0646304607
:1064D00070BD0000F0B585B005460C460127214986
:1064E00003C90491039000200290002C02D10420E3
:1064F00005B0F0BD00206860608861780843A1881D
:1065000008432178084368602078402802D020782A
:10651000C02824D1A088C117C90D091849128900C3
:1065200003AA515A8EB2E168B1400846FCF784FED6
:106530000190A068FCF780FE00900199FCF788FDAF
:1065400002903F210906029800F006FA0190FCF73C
:106550002FFE80B2A86104212846FFF79AFF00278A
:106560003846C5E7EC6A000001460868C0B27047CB
:1065700070B504460D4600BF03212046FFF79DFF7E
:106580000028F9D02068000A0002E9B20843206020
:1065900000BF01212046FFF790FF0028F9D001211C
:1065A0002046FFF76BFF002070BD10B5C046C04607
:1065B00010BD10B5C046C04610BD10B5C046C0469F
:1065C00010BD00001E2002490860E12008607047ED
:1065D000800F004030B503460C460125204600F0F0
:1065E00017F80648406820218843590120221140AD
:1065F0000843024948600025284630BD800F00400E
:106600001E2002490860E12008607047800F0040AA
:1066100004494968090909010207120F1143014A97
:1066200051607047800F00401B49086A096A0122C7
:10663000120791438918184A11621849C96807223C
:1066400052031140154AD16014494031C968144AB7
:106650001140124A4032D16010490968114A114371
:106660000E4A11600D4940310968342211430B4A2A
:10667000403211600949096A0A4A1143074A116206
:1066800006494031096A34221143044A40321162FA
:10669000014908627047000000200040800D024060
:1066A000CBFF0000FF1F0000024803498860034839
:1066B000886070475A5A000000200040A5A50000DD
:1066C00030B47446641E2578641CAB4204D3635D09
:1066D0005B00E31830BC18471D46F8E710B50028EA
:1066E00019DB1A4A03231B02D21883089B00D258D5
:1066F0008307DC0EFF23A3409A438B071B0E8407FE
:10670000E40EA3401A43114B032424021B198408EE
:10671000A4001A5118E00E4A03071B0F083B9B0800
:106720009B00D2588307DC0EFF23A3409A438B07BC
:106730001B0E8407E40EA3401A43054B0407240FE5
:10674000083CA408A4001A5110BD000000E100E0BC
:106750001CED00E000BF7047704710B50A460146C7
:10676000002900D110BD02E000230B70491C134624
:10677000521E002BF8D100BFF4E7000070B50546AB
:1067800011481249486100208861052008610FE026
:1067900000200E4988610E490E480068FCF7A8FBEE
:1067A000012109060C1A00BF08488069A042FBD8E5
:1067B00028466D1E0028EBD10448006940084000BF
:1067C0000249086170BD0000FFFFFF0000E000E02B
:1067D000A08601000000002070B50546114812494E
:1067E0004861002088610520086110E000200E4902
:1067F00088617D21C9000D480068FCF779FB012103
:1068000009060C1A00BF08488069A042FBD8284638
:106810006D1E0028EAD10448006940084000024982
:10682000086170BDFFFFFF0000E000E000000020F5
:1068300010B502460B4690799C79A04213D10021F5
:106840000CE0505C5C5CA04205D1D01C445CD81CC0
:10685000405C844201D0002010BD491C90798842E0
:10686000EFDC0120F8E70020F6E710B53F20FEF747
:106870009BFDFDF7B7FD002801D0012010BD0020D1
:10688000FCE7F8B5044607212046FCF72DFB00265F
:1068900023E00121B1400846FEF786FDFDF7A2FD89
:1068A0000746002F18D0002514E00120A8403840EA
:1068B00000280ED0A079401CA071A079401E26545B
:1068C000A079401EE11C0D54A079032801DB0120B2
:1068D000F8BD6D1C082DE8DB761C062ED9DB0020E8
:1068E000C043F5E7FFF7E8FCFFF7B2FAFCF7B0FDAD
:1068F00000BF01210C20FDF70DF90028F9D1FDF7AB
:1069000043FD13490870FEF7A7FD20E0FFF75AFE8C
:10691000FFF7E2FAFEF79EFC0E480078002806D149
:10692000FDF726F8FEF7C2F9FEF7F2FD0DE0094883
:106930000078022809D1FEF7B9F9FEF75BF8FEF7F7
:10694000C7F8FEF7C9FCFDF771FBFFF783FCDDE735
:10695000EB000020AC00002070B501250400ED071D
:106960004C4020D4441A01D2001B0919C60D4B001B
:10697000F2B2FF2A29D01B0E2CD000020C02D31A2F
:106980002C43DC402843051910D2280A02D3401CAE
:106990006D0611D0761EF6058019FF2A00DA70BD4B
:1069A000C00DC00570BD694000F022F8012005430C
:1069B000C541521C761CE8E764089C40C90161404F
:1069C0008900E7D10124A043E4E71B0E440200D074
:1069D000034870BD002AFCD1C00FC00770BD00BFC6
:1069E0000000C07F70B501250400ED074C4022D4A3
:1069F000441A02D26C40001B0919C60D4B00F2B2BA
:106A0000FF2A4BD01B0E50D000020C02D31A2C438D
:106A1000DC40A843051B05D5AD0019D36D08761ED3
:106A2000521E37D0F605280A01D2801970BD704178
:106A30006D0603D070BD6940FFF794FF9C400902CA
:106A40006140490001D0401E70BD0124A04370BDCB
:106A50006D081DD001202B0C01D12D0410302B0E00
:106A600001D12D0208302B0F01D12D01001DAB0FDC
:106A700001D1AD00801CEB0F01D16D00401C6D00F9
:106A8000361A121A680AF5054019012A02DB70BD90
:106A9000002070BDC036300AC00770BD1B0E440216
:106AA00001D1FF2B00D1024870BD002AF0D070BD8B
:106AB0000000C07F00093D0000127A000024F400AD
:106AC0004086510100366E010080009620000000D3
:106AD000170000001B00000050460000E0220200EA
:106AE00018000000F0000000E803000004000000AF
:106AF000030000000400000003000000020000008A
:106B0000400040004000400040000000C000C000C5
:106B1000090008000600040003000F00070006003B
:106B200080008000400040004000000000000E0097
:106B30000F000C000D000E000B000C0081828384FE
:106B400085868788898B8C8D8E8F91929395969769
:106B5000999A9C9D9FA0A2A3A5A7A8AAACAEB0B2EB
:106B6000B3B5B7B9BCBEC0C2C5C7C9CCCED1D4D7E6
:106B7000D9DCDFE2E6E9ECF0F3F7FAFE9C6B00000B
:106B800000000020EC000000042D0000886C0000D4
:106B9000EC0000201C100000202D000000093D002A
:106BA00000000000000000000000000000000000E5
:106BB00000000000000000000000000000000000D5
:106BC00000000000000000000000000000000809B4
:106BD0000A0B0C0D070F10111213141516171819A4
:106BE0001A1B1C1D1E1F202122232425262728298D
:106BF0002A2B2C0E2E2F00000000000000000000A9
:106C00002C1C240D0F232E251E28201722261F2A78
:106C10002F19181529211B2B0E111027161A0C0BD2
:106C20000A09081413120000000000000000000010
:106C3000000000000000000000FC000064FC0000F8
:106C40000000000000000000000000000000000044
:106C50000000005A01FE51A5FEFE000000000000E9
:106C60000000000000005A02FEFEA55A01FE51A5D8
:106C70005A0152A5000000000000000000000000C2
:086C800000000000000000000C
:0400000500002CC10A
:00000001FF
