:020000040000FA
:102C000010110020A52D0000C12D0000614C000016
:102C100000000000000000000000000000000000B4
:102C2000000000000000000000000000C52D0000B2
:102C30000000000000000000C72D0000135B000032
:102C4000655400006D540000755400007D54000070
:102C5000F539000049620000DD650000E56500000F
:102C6000FD4E0000054F0000CD550000D555000079
:102C7000714C0000794C00003162000039620000A4
:102C800041620000F54E00005162000059620000F0
:102C90006162000055540000776800000F55000085
:102CA0001B3400005D540000676800006F6800007E
:102CB00053500000ED4E00000D3B00000D360000AB
:102CC00000F002F800F042F80CA030C808382418D0
:102CD0002D18A246671EAB4654465D46AC4201D154
:102CE00000F034F87E460F3E0FCCB6460126334244
:102CF00000D0FB1AA246AB46334318477041000090
:102D000090410000103A02D378C878C1FAD852072F
:102D100001D330C830C101D504680C607047000091
:102D20000023002400250026103A01D378C1FBD8E7
:102D3000520700D330C100D50B6070471FB5009813
:102D4000019900F09AFA1FBD10B510BD00F0EEFA1F
:102D50001146FFF7F3FF00F059FB00F006FB03B448
:102D6000FFF7F2FF03BC03F053FE000070B5054609
:102D70000C46164602E00FCC0FC5103E102EFAD2BC
:102D8000082E02D303CC03C5083E042E07D301CC82
:102D900001C5361F03E021782970641C6D1C761E66
:102DA000F9D270BD0C480D4A002100A1814200D922
:102DB00002440B4A0B4802600B4880470B4800470F
:102DC000FEE7FEE7FEE7FEE7FEE7FEE70848094903
:102DD000094A0A4B70470000000000200000000074
:102DE000002C000008ED00E035610000C12C00005F
:102DF000100D002010110020100F0020100F0020D7
:102E0000704770B5064600F01BFA056830460B3077
:102E1000C408E400B44201D8002070BD68682A46A6
:102E2000002818D00168A14211D30B462146083171
:102E30008B4208D3436801194B6003681B1B0B606E
:102E40005160046001E041685160001D70BD0246A0
:102E500040680028E6D12146284600F0F9F900280C
:102E6000DCD170BD70B50446051F00F0E9F90068BB
:102E7000002C1AD0446801E020466468002C01D080
:102E8000AC42F9D301680A18AA4204D12A6805465F
:102E90008918016000E0456028684119A14205D108
:102EA0006168696021684018286070BD6C6070BD01
:102EB00001E004C0091F0429FBD28B0701D5028061
:102EC000801CC90700D00270704700290BD0C307CF
:102ED00002D00270401C491E022904D3830702D588
:102EE0000280801C891EE3E70022EEE70022DFE774
:102EF000002203098B422CD3030A8B4211D30023F7
:102F00009C464EE003460B433CD4002243088B42D0
:102F100031D303098B421CD3030A8B4201D394465D
:102F20003FE0C3098B4201D3CB01C01A5241830950
:102F30008B4201D38B01C01A524143098B4201D30A
:102F40004B01C01A524103098B4201D30B01C01A35
:102F50005241C3088B4201D3CB00C01A52418308AF
:102F60008B4201D38B00C01A524143088B4201D3DC
:102F70004B00C01A5241411A00D20146524110463C
:102F800070475DE0CA0F00D04942031000D34042B1
:102F9000534000229C4603098B422DD3030A8B42E7
:102FA00012D3FC22890112BA030A8B420CD3890185
:102FB00092118B4208D3890192118B4204D389016B
:102FC0003AD0921100E08909C3098B4201D3CB01A9
:102FD000C01A524183098B4201D38B01C01A52415E
:102FE00043098B4201D34B01C01A524103098B4262
:102FF00001D30B01C01A5241C3088B4201D3CB004D
:10300000C01A524183088B4201D38B00C01A52412F
:10301000D9D243088B4201D34B00C01A5241411A06
:1030200000D20146634652415B10104601D3404234
:10303000002B00D54942704763465B1000D34042E5
:1030400001B50020C046C04602BD704770477047BA
:10305000F0B5FF252D04C609C209FF2704462E40FE
:103060000137CB093E4348402A402B400746002AFF
:103070006BD0002B69D0AA4267D0AB4265D0002844
:1030800000DA32460125ED0529432C4309022002CE
:10309000090AD21A4B0C7F24E31A434C000A7C44E1
:1030A000E35C7D242404121914145B00A2188842E6
:1030B00001D3521C00E0400049420C465C432411FD
:1030C0005C43DB016415E318040A5C43C502200D70
:1030D0000C4644436419250A5D432303EC0C0D465A
:1030E000654300030019EB184C42A34201D35B185F
:1030F000401CD4052018002B07D05B00C91804D34E
:10310000401C002901D1400840003F2189048A4227
:1031100009D3002A08DC1106090F04D0032149074E
:103120004018C00FC007F0BD0122410012068918E7
:103130007F2252069142F6D205214907C84201D5A5
:103140009010F0BDFF20C005F0BD002F00DA324620
:103150001648AA4207D2AB4205D21902090E17D06F
:10316000F80FC007F0BDFF2563002D06AB42F9D86C
:103170004900A942F6D8AB4201D1A942F2D0A942F6
:1031800001D1002101E061004908D0050843F0BDEC
:103190001102090EFBD0FF200243D005F0BD0A4604
:1031A0000146104654E700008A3D00000000C07F41
:1031B0000102C21504D00123DB071943002A0ADBF0
:1031C0009E239A1A02D40846D0407047FF2241003D
:1031D0001206914201D900207047C017C0437047C2
:1031E0001F22030C02D10F2200041CD0030E01D1B8
:1031F0000002083A030F01D10001121F830F01D111
:103200008000921E002801DB4000521ED20551189A
:10321000021251181922904004D3491C002801D1F0
:103220004908490008467047C10FC90700D040420D
:10323000012292071143D3E701218907D0E77047A4
:1032400000487047B40C00207047704770477047C3
:1032500038B504460A4600206946C046C0460028E4
:1032600005D002462046009900F040F8012038BD04
:1032700010B5012000F054F810BDF8B5C046C046A6
:10328000054600200C461020C0460646A819A0425C
:103290000DD9324669460020C046C046070001D11C
:1032A00000F03EF80098A04200D00546C419FFF790
:1032B000C7FFF61D07460560F008C00046192846FE
:1032C00000F008F8B44204D031463868A21B00F080
:1032D0000DF8F8BD0021016041608060704710204A
:1032E0007047000000487047AC0C002010B5034642
:1032F000406801E003464068002801D08842F9D3C5
:103300001868C3188B4206D0CB1CD808C000001D1B
:10331000411A521A0146081D0A60FFF7A3FD10BDAD
:1033200010B500F031F800F028F810BD7546FFF731
:10333000D9FFAE46050069465346C008C000854621
:1033400018B020B5FFF742FD60BC00274908B6461B
:103350000026C0C5C0C5C0C5C0C5C0C5C0C5C0C5A4
:10336000C0C5403D49008D46704710B50446C04673
:10337000C0462046FFF7F3FC10BD10B5002801D071
:1033800003F046FB10BD000010B5012805D0002158
:1033900003A000F021F8012010BD09A1F8E700000A
:1033A00053494752544D454D3A204F7574206F662E
:1033B0002068656170206D656D6F72790000000096
:1033C0003A2048656170206D656D6F727920636F7A
:1033D000727275707465640070B505460C460A20FB
:1033E00000E06D1C03F016FB002D06D028780028A5
:1033F000F7D102E0641C03F00DFB002C02D0207812
:103400000028F7D10A2003F005FB70BD10B502F0CB
:1034100091FE03F0C5FB002010BD10B5C046C046AC
:1034200010BD1CB501211C2002F0F0FD00216846F2
:103430000170012181700021C1706A4608210020BD
:1034400001F094FA0821002001F06AFA1CBD000086
:1034500010B5104803F006F901F0FFFD00F0C0F8C8
:10346000FFF7DFFF02F002F900F083FD01F00EFC30
:10347000FF20913003F044F802F0F6FE01210F2006
:1034800002F0C4FD0C21002003F002FA03F016FA4A
:1034900010BD0000D430000030B5024600201402F8
:1034A000034D631901248C40E4435C6130BD00008E
:1034B000000C004070B5024600201502034EAB1907
:1034C0001C692546CD40E807C00F70BD000C0040C8
:1034D00030B5024600201402044D63191C68240C08
:1034E00024048DB22C431C6030BD0000000C004051
:1034F00030B5024600201402044D63195C68240CA8
:1035000024048DB22C435C6030BD0000000C0040F0
:1035100010B5014600200B02034C1A19D3685B0852
:103520005B005B1CD36010BD000C004010B5014671
:1035300000200B02034C1A19D3682415A3431B194E
:10354000D36010BD000C004070B503460A46002051
:103550001C02224D6119CC68AD00AC4315782D03D7
:103560000326360335402C43CC60CC6801256D0220
:10357000AC4355786D020126760235402C43CC6071
:10358000CC687510AC4395782D02761035402C43ED
:10359000CC60CC687025AC43D5782D0170263540C1
:1035A0002C43CC60CC680825AC431579ED00082687
:1035B00035402C43CC60CC680425AC435579AD0034
:1035C000042635402C43CC60CC680225AC43957969
:1035D0006D00022635402C43CC6070BD000C0040CD
:1035E0001CB501211C2002F011FD0021684601706C
:1035F000012181700021C1706A460F21402001F035
:10360000B5F90F21402001F08BF91CBD10B5C04663
:10361000C04610BDFFB50446039813E02378641C30
:103620001E02704000250BE00126F6030640002E26
:1036300003D046005640B0B201E04604300C6D1C89
:10364000082DF1DB0E46491E002EE7D104B0F0BD77
:10365000002004490880044908700449088004498E
:1036600008707047CC000020C9000020C600002070
:10367000C8000020094800880949884204DD00206C
:103680000649088007490880064800887D21C9004E
:10369000884202DD0020034908807047B200002004
:1036A00028230000C4000020064800783C2803DAE4
:1036B000054800783C2804DB0020024908700249D4
:1036C000087070470C0000200D00002004480078AE
:1036D000282804DD0020024908700249087070475C
:1036E000160000201700002010B500246248007862
:1036F000002815D0614800886149884210DB00200D
:103700005D4908705D4908805E4908705E4908702F
:103710005E4908705E49088064215E48FFF7E4FB5B
:103720005D495E4800F086F9002854D0554800787D
:10373000002803D05348007804282DD14E48007843
:10374000002829D1544800F09FFD4E4908700846D2
:103750000078002803D1504800F012F91CE04948D5
:103760000078022803D101204349087014E045483D
:103770000078012805D14049087000203F490880A1
:1037800010BD40480078032806D101203A4908704E
:1037900000203A490880F3E737480078012868D1CB
:1037A00038480078012817D13B4800F085F80028F8
:1037B0005FD03B48006800F087FB002859D001200B
:1037C0003849087000202C4908702E4908702E498D
:1037D00008702F4908804CE02A48007802280CD154
:1037E00000F032FB012030490870002022490870A7
:1037F00025490870234908703BE0224800780328D7
:1038000037D1254800F058F8002832D02748006802
:1038100000F05AFB00282CD000241E4880780006B7
:1038200004431C48C078000404431A48007900028D
:103830000443184840790443002C11D0204602F07C
:1038400011FF01201A4908701A49087000200A491E
:1038500008700C4908700C4908700D49088008E090
:103860000020054908700749087007490870084991
:103870000880002084E70000B9000020B20000208A
:10388000B80B0000BA000020B4000020B5000020F2
:10389000B6000020540A0020B8000020F4000020E8
:1038A000A0000020AC000020AD000020A4000020FB
:1038B000B0000020B100002001462848007801280F
:1038C00020DC0878264A254B1B78D0542348007802
:1038D000002807D108780002224A12881043214AA2
:1038E000108009E01D480078012805D108781D4A9C
:1038F000128810431B4A108018480078401C174A51
:10390000107028E00878164A144B1B78D0541348DE
:103910000078401C114A107012480088001D12786F
:10392000904218D10D480078801E0D4A105C0E4A56
:1039300010700A480078401E094A105C0B4A10704B
:10394000002206480078801E054B1A540020034AC6
:103950001070012070470020FCE70000B500002037
:10396000540A0020B6000020AB000020AA0000206E
:1039700010B501F0EDFBFFF7B7FE002010BD000011
:1039800010B504462078502815D006DC052817D03D
:103990000A280BD0292825D117E077281ED0A02887
:1039A00020D10F21402001F033F81BE00821002036
:1039B00001F02EF816E00F21402000F0B1FF11E0D9
:1039C0000821002000F0ACFF0CE00120064908703F
:1039D00000200649087001F09FFD03E00120044922
:1039E000087000BF00BF10BDAE000020080000201E
:1039F000AF00002010B5C046C04610BD0346187881
:103A00005A2804D18020087001201070704718785F
:103A1000A52805D180200870022010700120F5E74C
:103A20001878802804D10870032010700120EDE779
:103A30000020EBE770B504460D46204601F044FD3A
:103A4000002801D0002070BD2168E068405C28702B
:103A50002268501CA168FFF74BFA21600120F2E7B1
:103A600070B504460D46204601F037FD002801D010
:103A7000002070BD6168E06845546268501CA16810
:103A8000FFF736FA61600120F3E7000070B50446E5
:103A90000E4615462046002805DBC206D20E01213F
:103AA0009140184A116000BF3146204602F074FF71
:103AB000012D0AD12046002805DBC206D20E0121C5
:103AC0009140114A116000BF1BE02046002816DB20
:103AD000C206D20E012191400B4A8032116000BF14
:103AE00000BF00BFBFF34F8F00BF00BF00BF00BFCC
:103AF00000BF00BFBFF36F8F00BF00BF00BF00BF9C
:103B000000BF70BD80E200E000E100E010B5C046FB
:103B1000C046C046C04610BDF0B58BB005460E4647
:103B20000024FF200A9000200990202101A8FFF71F
:103B3000DDF9284F012D0ED0022D0CD0042D0AD016
:103B4000062D08D0082D06D00C2D04D00420099095
:103B500009980BB0F0BD1F48006A01214902884353
:103B6000710201225202114008431A4908620024DE
:103B700007E0A000184908586843A10001AA505066
:103B8000641C082CF5D30C2D01D1FF2002900024D9
:103B90001CE0FF200A9011E00A98411E0A910028BB
:103BA0000AD00E480B49C8620D48C862A00001A99E
:103BB0000858A100785001E00720CAE7A000385853
:103BC000A10001AA51588842E6D1641C082CE0D318
:103BD0000998BEE700000240BC6D00005A5A000080
:103BE000A5A5000003480449C8620448C862002033
:103BF000086370475A5A000000000240A5A5000063
:103C0000F7B5FFB081B00646154601214902684666
:103C1000FFF76CF90024002700BF08E01C49096881
:103C2000081900F04DF969460855601C84B201205E
:103C300040028442F2D300BF1548006800F02AF821
:103C40000028F9D112480088281A84B206E0F05DF5
:103C500069460855781C87B2601C84B28198401967
:103C60000B490968401AA042F1D8002408E06A46CE
:103C7000115D074A1268101900F068F9601C84B2DF
:103C8000012040028442F2D37FB004B0F0BD0000B6
:103C9000A000002008B502460023FF200090254820
:103CA000824202D90423184608BDFF20009006E096
:103CB0000098411E0091002801D10920F4E71E4818
:103CC000006AC006C00F0028F2D100F03BF8FF20C8
:103CD000009012E00098411E009100280BD0174878
:103CE0001549C8621648C8620846006A8008800004
:103CF000801C086201E00920D6E70F48006A8007AF
:103D0000800F0228E6D100201070FF20009006E00E
:103D10000098411E0091002801D10920C4E70648FF
:103D2000006AC006C00F0028F2D1FFF75BFF1846FB
:103D3000BAE70000FFFF0000000002405A5A0000EE
:103D4000A5A5000004480549C8620548C8620020CE
:103D5000C0430863704700005A5A00000000024048
:103D6000A5A5000010B501460020084A084BDA62FC
:103D7000084ADA621A46126A0C239A438B000C2412
:103D800023401A43024B1A6210BD00005A5A000029
:103D900000000240A5A5000018B502460B4600240D
:103DA000FF2000902448824202D90424204618BDF6
:103DB000FF20009006E00098411E0091002801D1EC
:103DC0000920F4E71D48006AC006C00F0028F2D1A0
:103DD000FF20009012E00098411E009100280BD0B7
:103DE00017481649C8621748C8620846006A800822
:103DF0008000401C086201E00920D8E70F48006AF3
:103E00008007800F0128E6D1FFF79CFF1370FF2089
:103E1000009006E00098411E0091002801D1092081
:103E2000C5E70648006AC006C00F0028F2D1FFF7B8
:103E3000D9FE2046BBE70000FFFF00000000024063
:103E40005A5A0000A5A5000010B5002018490880A6
:103E50001848006800F034F8000215490988084342
:103E60001349088013480068401C00F029F81049E5
:103E7000098808430E490880084600880E49884290
:103E800015D0002408E00B490968081900F018F85B
:103E90000A490855601C84B205480088001D844208
:103EA000F1DB0021054A02480088001D115410BDB5
:103EB000A8000020A0000020FFFF0000B80A00209A
:103EC000014608787047000070B5044600231A4A7E
:103ED0001A4801881A48FFF79DFB0546E8B21949C0
:103EE0000978884220D128121749097888421BD1C5
:103EF00015480178124A921E10480088801C1154FF
:103F0000104801780D480088C01C11540B480088E7
:103F1000001D0A490880A2B2084601880848801E90
:103F2000FFF76EFE012070BD64210548801EFEF77C
:103F3000DBFF0020F7E7000021100000B6000020A2
:103F4000560A0020AA000020AB00002070B50446ED
:103F50000D4629462046FFF71FFF002807D103E042
:103F600029462046FFF718FF2078A842F8D1012003
:103F700070BD1CB501211C2002F048F801216846E3
:103F80000170002101714170012181700021C17017
:103F90006A460921402000F0E9FC6A4608214020D9
:103FA00000F0E4FC6A460621402000F0DFFC6A468F
:103FB0000421402000F0DAFC6A460321402000F092
:103FC000D5FC6A460F21002000F0D0FC6A4607218C
:103FD000C02000F0CBFC6A460621C02000F0C6FCE1
:103FE0000021684601706A460E21802000F0BEFC68
:103FF0006A460F21802000F0B9FC6A460C2140205F
:1040000000F0B4FC6A460D21402000F0AFFC6A4687
:104010000E21402000F0AAFC6A460B21002000F08F
:10402000A5FC6A460C21002000F0A0FC1CBD00008D
:1040300008B53548007800281FD169463348FFF796
:10404000F9FC00280ED0684600F0F4F900F042FABE
:10405000002803D000202E49088008BD00202C49EC
:1040600008804EE02B48008800284ADD2848008858
:10407000322846DBFFF7ECFA43E0234800780128BA
:104080003FD12548007800283BD101F0D1FC69469A
:104090001E48FFF7CFFC00281DD01E480088401C9A
:1040A0001C490880684601F0A7FC1C480088801C59
:1040B0001849098888420AD1A521880702F0B6FB71
:1040C000002011490870FFF7C3FA0020C5E700205F
:1040D0000F49088015E011480088801C0D490988A7
:1040E00088420ED000210E4800F039FF002808D188
:1040F000A521880702F09AFB002003490870FFF70A
:10410000A7FA0020A9E70000CE000020440200200A
:10411000C4000020CC00002009000020C6000020C0
:104120000002004010B501201C4908705A21800788
:1041300002F07CFB0121880702F078FB1848017827
:104140000120800702F072FB1548417801208007AA
:1041500002F06CFB124881780120800702F066FBB8
:104160000F48C1780120800702F060FB0C484178BD
:104170000120800702F05AFB09484179012080079D
:1041800002F054FB064881790120800702F04EFBC3
:10419000A521880702F04AFB10BD00003500002071
:1041A0009600002010B5C8210648FEF79DFE0020AD
:1041B00005490880054908700549088005490870C7
:1041C00010BD00001C0B0020DE000020E0000020DD
:1041D000E2000020E700002030B503460C46002135
:1041E000002200BF3EE0881C185C80282FD1C81C2C
:1041F000185C01280BD15A20A054481C81B2501CD5
:1042000082B21C480088401C1A4D288028E0C81C37
:10421000185C02280BD1A520A054481C81B2501C68
:1042200082B214480088401C124D288018E0C81C37
:10423000185C032814D18020A054481C81B2501C63
:1042400082B20C480088401C0A4D288008E0881C77
:10425000185C802804D0881C185CA054501C82B2C2
:10426000481C81B204480088C01E8842BBDC002084
:1042700030BD0000EC000020DE0000200246106887
:10428000C840C007C00F704701460878FE2808D113
:104290000F480078002804D101200D4A1070042036
:1042A00070470B48007801280FD10878012800D109
:1042B000F6E70878032801D10220F1E708785128B1
:1042C00001D10320ECE70020EAE70020E8E7000046
:1042D000B400002001461F480078002810D108785B
:1042E0005A280DD108781C4A1C4B1B88D0541B48F7
:1042F0000088401C194A10800120164A107027E0DF
:104300001448007801280DD10878A5280AD00A7829
:104310001148124B1B88C25410480088401C0F4A99
:10432000108015E00B480078012811D10878A528E5
:104330000ED10A780848094B1B88C25407480088E8
:10434000401C064A10800220024A1070012070476B
:104350000020FCE7E00000201C0B0020DE00002015
:10436000024607480078012804D1D000054BC01848
:10437000405C7047D000044BC018405CF9E7000077
:10438000F1000020360000206600002010B5002457
:104390000221002000F0D2FA002801D0012000E024
:1043A0000020800004430521402000F0C7FA0028C7
:1043B00001D0012000E00020400004430221402001
:1043C00000F0BCFA002801D0012000E000200443E6
:1043D000012C01D1002010BD072C01D18120FAE76A
:1043E000032C01D10120F6E7062C01D18320F2E74E
:1043F000022C01D10320EEE70020ECE770B5002588
:10440000002400BF0DE06200084B995C6200084B7D
:10441000985C00F093FA002802D10120A0400543E7
:10442000641C082CEFDB284670BD0000006E000005
:10443000F06D000000B502461078552807D12248DB
:104440000078002803D101201F49087039E0107856
:10445000AA2807D11C480078012803D102201A4954
:1044600008702EE01848007802280DD1174800780F
:10447000002809D110781649098808431449088092
:104480000120124908701CE00F48007802280ED164
:104490000E48007801280AD1107800020C490988DA
:1044A00008430B49088002200849087009E00848C1
:1044B0000088042805DA05480078022801D1FFF7B2
:1044C000C7F8002000BD0000C9000020C80000207F
:1044D000C600002019480078012803D0174800784A
:1044E000022808D116480078002804D11548008811
:1044F000401C1449088012480078012803D0104855
:104500000078022808D10F480088042804DA0D48F2
:104510000088401C0B4908800848007802280BD10D
:1045200007480078022807D107480088042803DBE1
:1045300001200649087070470020FCE7C9000020F0
:10454000C8000020CC000020C6000020CE000020C3
:1045500010B504462078512830D008DC05281BD03F
:104560000A280FD029281CD0502833D10FE0522818
:104570002CD077281ED0A0282CD10F21402000F06D
:1045800047FA27E00821002000F042FA22E00F213C
:10459000402000F0C5F91DE00821002000F0C0F91E
:1045A00018E001200C49087000200C49087000F048
:1045B000B3FF0FE001200A4908700BE0022009490F
:1045C0000870E120400200F0E3FE03E0012006490C
:1045D000087000BF00BF10BDEB00002008000020E5
:1045E000E6000020B0000020EE00002070B500259D
:1045F000002415488078000204431348C07804431F
:104600000023124A21461048001DFFF703F8054613
:10461000002D16D00C49601D085CE9B2884210D10B
:104620000949201D085C291288420AD108480088DF
:1046300082B2201D81B20448801CFFF7E1FA0120FC
:1046400070BD0020FCE70000E40B002021100000FA
:10465000A000002070B500250E480068FFF730FC70
:10466000000205430B480068401CFFF729FC054386
:10467000002408E0074909680819FFF721FC0649EA
:104680000855601C84B2281D8442F3DB0021024AD5
:10469000115470BDA0000020B80A002038B50024D5
:1046A0001B48007800281FD169461A48FFF7C2F955
:1046B00000280CD00020184908806846FFF70AFE41
:1046C000002823D0012012490870002038BD13486B
:1046D000007801281AD1104800884B21090188422E
:1046E00014DBFFF75FFD11E00948007801280DD1C8
:1046F00000F0C8FE0446002C05D009490948FFF720
:104700006BFD2046E2E70020014908700020DDE74C
:10471000E7000020F4000020E2000020E00000207C
:10472000E40B00201C0B002070B501240025FFF7CE
:104730002DFE1F4908700846007800280BD0084657
:10474000007880210840002805D00424184800780B
:1047500045066D0E01E0164805785A21480702F01B
:1047600065F80121880702F061F84821C80602F0C7
:104770005DF80221480702F059F80521880702F088
:1047800055F821460120800702F050F82946012003
:10479000800702F04BF85221480702F047F85121F8
:1047A000880702F043F8A521880702F03FF870BDA2
:1047B000F1000020FEB521A103C902910190002063
:1047C000009000241F480068FFF77AFB00020443B2
:1047D0001C480068401CFFF773FB0443201D400485
:1047E000040C26463046FEF70CFB0546164884426C
:1047F00004D1052101A801F0BDF81AE02746E10F18
:10480000C919C905080E2A46104900F071FF009029
:1048100001216846C171042101A800F019F8284659
:10482000009900F015F86846017A0120800701F030
:10483000FDFF2846FEF716FBFEBD00005A02FE02F1
:10484000A5000000A0000020FFFF0000B80A002023
:1048500070B505460E46002406E0295D012080075C
:1048600001F0E4FF601CC4B2B442F6D370BD000096
:1048700030B589B004461EA207CA06AB07C314218F
:1048800001A8FEF733FB0025502C12D11B480088ED
:1048900001126846C17619480178684601771848C0
:1048A000008801126846417715480178684681778B
:1048B00007E0522C05D100216846C1760177417787
:1048C00081776846C47701AA06A90A2000F010FF84
:1048D00005465A216846017101214171A521681ED2
:1048E00001AA1154294601A8FFF7B2FF09B030BD53
:1048F0000000540000000000530000000E000020E3
:104900001000002070B504460D46044960180022CE
:10491000294601F0EFF8002070BD0000100E0240A3
:1049200070B504460D46044960180122294601F07D
:10493000E1F8002070BD0000140D024070B504467F
:104940000D46034960182946FFF798FC70BD00002A
:10495000040D024070B504460D460349601829460F
:10496000FFF78CFC70BD0000000E024070B50446DD
:104970000E4615461E4960180022314601F0BAF86D
:1049800000201C496118B20088502A7818490C3957
:104990006018314601F0AEF86A7815491031601898
:1049A000314601F0A7F8AA78114914316018314650
:1049B00001F0A0F8EA780E4918316018314601F08C
:1049C00099F82A790A4920316018314601F092F8A5
:1049D000094880680121C90388436979C903012214
:1049E000D2031140084304498860002070BD0000D4
:1049F0000C0D0240000C0240000F024010B50346AF
:104A0000024818188C000251002010BD000C024012
:104A100070B504460D46044960180122294601F08C
:104A200069F8002070BD0000100D024010B5FFF7BE
:104A300035FE2F49087008460078012814D12D480A
:104A40000078FE2803D12B4840782A49087029486D
:104A5000FFF77EFD002026490870C8212548FEF793
:104A600043FAFFF79FFB41E021480078022833D149
:104A700020480078FE2814D11E484078012810D123
:104A8000FFF7B4FD002802D001201B490870002068
:104A900017490870C8211748FEF726FAFFF782FB6E
:104AA00024E014480078FE2820D1124840780328DA
:104AB0001CD164211148FEF717FA01201049087033
:104AC000FFF7C8FD00200A490870C8210948FEF711
:104AD0000BFAFFF767FB09E005480078032805D1CA
:104AE00001200849087000200149087010BD00002D
:104AF000EF000020E40B0020E8000020B80A0020AE
:104B0000E9000020EA00002010B54548007801289F
:104B100006D15020FFF7ACFE0020414908707EE02E
:104B200040480078012806D15220FFF7A1FE00205E
:104B30003C49087073E03C480078012805D1FFF734
:104B4000F3FD00203849087069E0384800780128F2
:104B500005D1FFF7E7FA0020344908705FE03448D8
:104B60000078012807D105213248FFF771FE0020A7
:104B70002F49087053E030480078012805D1FFF72D
:104B800019FE00202C49087049E02C4800780128C3
:104B900007D105212A48FFF75BFE0020274908704E
:104BA0003DE028480078012812D1002025490870EE
:104BB00025480088254A1288801AC11E244800F022
:104BC000C9FEC8212248FEF78FF9FFF7EBFA26E06D
:104BD00020480078012822D100201E49087000BF1B
:104BE0007F204002FFF756F80028F9D1A0211A488B
:104BF000FFF7ACF950211848401EFFF7A7F9AA218A
:104C00001548801EFFF7A2F900217F204002FFF720
:104C10009DF904211148FFF71BFE00BFFEE710BD00
:104C20000A0000200B000020E6000020EB0000201E
:104C3000E8000020D0000020E9000020B1000020A2
:104C4000D5000020EA000020DE000020EC0000205B
:104C5000E40B0020EE00002003FE0000DA0000203C
:104C600008B50020009000BF00980028FCD008BDC7
:104C700010B5C046C04610BD10B5C046C04610BDF8
:104C80000023036043608260C16070477820074959
:104C90000870FF20487055208870FF20C870087188
:104CA000002048717920887170470000960000202C
:104CB00010B501F038FF01287BD17E480078142818
:104CC00077DD7D480078002808D17C4908707C4851
:104CD00001F035FF012078490870E9E07748007855
:104CE0001428FADD774801F02AFF7649744801F06C
:104CF000FDFE01287ED1724AD1781078FFF730FB93
:104D0000714908806E4A11795078FFF729FB6F4985
:104D100008806B4A51799078FFF722FB6C49088034
:104D200067488079012820D1674800886949098847
:104D300088421AD06448007867494870FF20C870DC
:104D40000871012048714420887064480078002868
:104D500002D100F03BFD05E060480078022801D157
:104D6000FFF7E0F901205E49087055488079022874
:104D700029D15548008857490988884205D15348A8
:104D800000885849098888421DD04F480078524908
:104D900048704E480078C870FF20087102204871A2
:104DA000442088704D480078002803D100F00EFDA3
:104DB00006E04EE049480078022801D1FFF7B2F939
:104DC0000120474908703E488079032831D13E4888
:104DD00000884049098888420BD13C4800884149F5
:104DE0000988884205D13A4800883F4909888842A5
:104DF0001FD000E029E03448007837494870334834
:104E00000078C87032480078087103204871442047
:104E1000887032480078002802D100F0D7FC05E005
:104E20002E480078022801D1FFF77CF901202C4997
:104E300008702548008827490880244800882949A7
:104E40000880234800882849088000201A490870F3
:104E50002EE02348007800282AD078201E490870C8
:104E60001948007848705520887018480078C87034
:104E70001748007808711248807948717920887144
:104E800016480078002802D100F0A0FC05E0134885
:104E90000078022801D1FFF745F900200D4908806C
:104EA00010490880104908800D49087001490870B0
:104EB00010BD000017000020260000201600002072
:104EC000270000202E0000201A0000201C000020D7
:104ED0001E0000202000002096000020B0000020CE
:104EE00018000020220000202400002010B5C04639
:104EF000C04610BD10B5C046C04610BD10B500F08C
:104F000017FA10BD10B5C046C04610BD70B50446B6
:104F10000D46002229462046143000F0EBFD00200B
:104F200070BD70B504460D4600222946201D00F0D4
:104F3000E1FD002070BD70B504460D4601222946F2
:104F4000201D00F0D7FD002070BD70B504460D4651
:104F500001222946201D00F0CDFD002070BD70B556
:104F600004460D460026294620461030FFF786F9F4
:104F70000646304670BD0000F0B587B005460C46C9
:104F80000127224A07CA04AB07C300200390002C64
:104F900002D1042007B0F0BD00206860608861780D
:104FA0000843E1880843A1880843217808436860E2
:104FB0002078402802D02078C02824D1E088C1176A
:104FC000C90D09184912890004AA515A8EB2E16824
:104FD000B1400846FEF730F90290A068FEF72CF9C0
:104FE00001900299FEF734F803903F2109060398D7
:104FF00001F02AFE0290FEF7DBF880B2A8610421DE
:105000002846FFF798FF00273846C3E7E46D000005
:1050100001460868C0B2704770B504460D4600BF2F
:1050200003212046FFF79BFF0028F9D02068000AE3
:105030000002E9B20843206000BF01212046FFF7CB
:105040008EFF0028F9D001212046FFF75FFF0020E6
:1050500070BD10B5C046C04610BD1CB501211C2056
:1050600000F0D4FF002168460170017101218170B8
:105070000021C1706A460D218020FFF777FC0D21C9
:105080008020FFF7C5FC1CBD10B500214020FFF7B4
:1050900055FC002836D124480078192803DA234823
:1050A000007800282ED10420214908700821002012
:1050B000FFF7AEFC00201C4908701E491E4801F095
:1050C00031F91E4800881C490988401A40431C4990
:1050D0000988184A1288891A49434018782801DC3F
:1050E000002010BD14480088144908801148008829
:1050F000134908800120134908700C4908701249AF
:1051000008700FE000214020FFF718FC002809D0AC
:1051100006480078002805D00020044908700120C6
:105120000A4908700020DCE70C000020080000207D
:10513000B0000020100000200E000020120000200F
:10514000140000200A000020090000200B000020AD
:1051500038B5002400200090D6E001F091FB6E48A5
:105160000078030001F00AFC05044A63B8C2CF00CE
:105170006A480088642812DB78210120800701F04A
:1051800055FBFE210120800701F050FB0421080798
:1051900001F04CFB002061490880601C84B2322C75
:1051A00004DB0A205C490870002038BD1FE0694616
:1051B0005B48FEF73FFC68460078FE2800D016E00A
:1051C00000A901315648FEF735FC68460078FE28F4
:1051D0000CD168464078042808D101204E49087057
:1051E000002408210020FFF713FC05E000BF4C4815
:1051F00000F081F90228DADA00BF84E0782101208A
:10520000800701F013FBFE210120800701F00EFB57
:105210000A21480701F00AFBE120400201F022FACE
:10522000642001F037FC02203B4908706BE03B48EA
:105230000088322812DB78210120800701F0F6FA7D
:10524000FE210120800701F0F1FA0521880701F015
:10525000EDFA002031490880601C84B2FF20F5304F
:10526000844207DB0A202C4908702E4801F0FAF925
:1052700000209AE729E069462948FEF7DBFB6846EB
:105280000078FE2800D020E000A901312448FEF774
:10529000D1FB68460078FE2816D16846407805287C
:1052A00012D103201C49087078210120800701F0E9
:1052B000BDFAFE210120800701F0B8FA0B21012080
:1052C000800701F0B3FA05E000BF154800F013F9BC
:1052D0000228D0DA00BF16E0FEF7B6FD0120124921
:1052E000087004200C49087000205EE70E48007822
:1052F000002807D10A200849087003200B490870CC
:10530000002052E700BF00BF034800780A2800D001
:1053100023E7002049E70000BB000020B200002086
:10532000F4000020D4300000AD000020B0000020C8
:1053300010B502211348FFF712FE002803D0022106
:105340001048FFF7E3FD04210E48FFF708FE002890
:1053500003D004210B48FFF7D9FD00210948FFF7CE
:10536000FEFD00280DD000210648FFF7CFFD0548BF
:10537000FFF74EFE04490870084601780348FEF71F
:105380006FFB10BD00020040070000204402002017
:1053900010B586B00446062104A801F03CFB10219C
:1053A000684601F038FB01211C2000F02FFE00218F
:1053B00068460174012181740021C17404AA0A2184
:1053C0004020FFF7D3FA04220A214020FFF716FB02
:1053D00001216846017404AA0B214020FFF7C6FA98
:1053E00003220B214020FFF709FB0121022000F0DE
:1053F0000DFE002168464180818000F033FD02905F
:1054000000216846C18003944021017069460E481E
:10541000FFF7B2FD0122D2020C490D48FFF730FC24
:1054200000210948FFF772FD00210748FFF779FDC9
:1054300000210548FFF789FD012211460820FEF7EB
:1054400025FB06B010BD0000000200405402002001
:105450004402002010B5C046C04610BD10B5C0467D
:10546000C04610BD10B500F023F810BD10B5C04601
:10547000C04610BD10B5C046C04610BD10B5C046F0
:10548000C04610BD10B509484078012800D110BDB4
:1054900006484078022800D1F9E7044840780328FC
:1054A00000D1F4E7FEF77EFE0020F0E71C0B0020A1
:1054B00010B503210020FFF74DFA012803D1032185
:1054C0000020FFF71FFA10BD01464A6808689042A5
:1054D00001D1012070470020FCE710B50446626846
:1054E000501CA168FDF704FD2068814201D1012014
:1054F00010BD0020FCE710B5044623686268D21A8C
:10550000A368D0181946FDF7F3FC084610BD10B586
:10551000C046C04610BD000010B500214020FFF776
:105520000DFA00282ED12048007800282AD1082121
:10553000FFF76EFA00201D4908701D491D4800F054
:10554000F1FE1D4800881B490988401A40431B4949
:105550000988174A1288891A49434018782801DCBB
:10556000002010BD134800881349088010480088A7
:10557000124908800120124908700B49087011492E
:1055800008700FE000214020FFF7D8F9002809D06B
:1055900005480078002805D0002003490870012044
:1055A0000949087000BFDCE7080000200C0000205B
:1055B000100000200E000020120000201400002027
:1055C0000A000020090000200B00002010B5C04692
:1055D000C04610BD10B5C046C04610BD0CB51A4837
:1055E0000278684602701948027868464270184886
:1055F000027868468270174802786846C27016487A
:10560000027868460271154802786846427114486B
:10561000027868468271134802786846C271002198
:1056200000BF09E06846405C012803D10E4A1070B3
:1056300000200CBD481CC1B20829F3D300200A4A3F
:10564000107000BFF5E700000A0000200B000020EA
:10565000E6000020EB000020E8000020E900002028
:10566000B1000020EA000020090000201CB5012143
:105670001C2000F0CBFC0121684601700021017163
:10568000012181700021C1706A4602210020FFF7CC
:105690006DF96A4602214020FFF768F96A46052144
:1056A0004020FFF763F91CBD70B50546002400BF1C
:1056B00016E00120A0402840002808D062000A4BD4
:1056C000995C6200094B985CFFF72AF907E06200D9
:1056D000054B995C6200054B985CFFF799F9641CD7
:1056E000062CE6DB70BD00001E6E0000106E000090
:1056F00030B505460C460021002300BF28E0E05CE1
:105700005A2808D180205054481C81B2012050549E
:10571000481C81B21AE0E05CA52808D180205054D2
:10572000481C81B202205054481C81B20EE0E05C5B
:10573000802807D15054481C81B203205054481C83
:1057400081B203E0E05C5054481C81B2581C83B223
:10575000AB42D4DBC8B230BD70B501240025FEF7E2
:1057600015FE194908700846007800280BD0084635
:10577000007880210840002805D0042412480078D1
:1057800045066D0E01E0104805784821C80601F075
:105790004DF80221480701F049F80521880701F07A
:1057A00045F821460120800701F040F829460120F4
:1057B000800701F03BF85221480701F037F85121EA
:1057C000880701F033F870BDF100002010B501200A
:1057D00016490870164801780120800701F026F864
:1057E000134841780120800701F020F810488178A3
:1057F0000120800701F01AF80D48C17801208007C8
:1058000001F014F80A4841780120800701F00EF8F1
:10581000074841790120800701F008F804488179A0
:105820000120800701F002F810BD000035000020C3
:105830009600002010B526480078012805D10020E8
:1058400023490870502000F0A5F82248007801286C
:1058500007D1522000F09EF800201E4908701E4912
:1058600008701E480078012805D1FFF775FF002059
:105870001A4908702AE01A480078012805D1FFF774
:10588000A5FF00201649087020E01648007801287E
:1058900007D10221144800F06DF80020114908706A
:1058A00014E012480078012805D100F025F8002006
:1058B0000E4908700AE00E480078012806D105213B
:1058C0000C4800F057F800200949087010BD00008E
:1058D0000A0000200B00002009000020AF0000207B
:1058E000AE000020AC000020C1000020AD00002070
:1058F000B1000020BC00002038B512A00068009064
:1059000011480068FEF7DCFA04460F480068401CA6
:10591000FEF7D6FA0546FF2C06D1FF2D04D1022151
:10592000684600F027F80CE0012069464870022123
:10593000684600F01FF805480188091D044800F07A
:1059400019F838BDFE020000A0000020A8000020C9
:10595000B80A002070B505460E46002405E0295D12
:105960000348FFF759FB601CC4B2B442F7D370BDC3
:105970000002004070B505460E46002406E0295D91
:105980000120800700F052FF601CC4B2B442F6D37D
:1059900070BD00001CB5044613A103C9019100901D
:1059A000502C12D1124800880112684641701048EC
:1059B0000178684681700F48008801126846C170FE
:1059C0000C4801786846017107E0522C05D100218E
:1059D000684641708170C170017168464471072149
:1059E000FFF7C8FF1CBD000054000000000053007A
:1059F0000E000020100000201CB504466A4601A9D4
:105A00002046FDF7FBFF00280CD0684601790120F5
:105A1000800700F00BFF684601780120800700F046
:105A200005FF04E021780120800700F0FFFE1CBD87
:105A30000EB52D480078022854D12C480078022851
:105A400050D15A21400700F0F1FE032101208007C8
:105A500000F0ECFE5521880700F0E8FEAA21480777
:105A600000F0E4FE2248007802906A4601A902A8EC
:105A7000FDF7C4FF00280CD068460179012080079B
:105A800000F0D4FE684601780120800700F0CEFEC9
:105A900005E06846017A0120800700F0C7FE14483F
:105AA0000088001202906A4601A902A8FDF7A6FF2D
:105AB00000280CD0684601790120800700F0B6FE6E
:105AC000684601780120800700F0B0FE05E06846D6
:105AD000017A0120800700F0A9FE00200349087028
:105AE000014908700EBD0000C9000020C800002058
:105AF000C600002010B5012A05D1036801248C409E
:105B00002343036004E0036801248C40A343036043
:105B100010BD10B5C046C04610BD70B50446002586
:105B20002078030000F02AFF0504050C10181C0063
:105B300018E0032000F0CEFA032000F095FA11E0FF
:105B4000032000F06FFA0DE00321084600F0D0FAC0
:105B5000032000F099FA05E0072000F045FA01E083
:105B6000042500BF00BF2078012100F00BF8207849
:105B700000F09AFA607800F085F9A07800F096F9C4
:105B8000284670BDF8B505460C46002700F0EAFE31
:105B9000002C01D0012000E0002004465148066A94
:105BA0002B0000F0EBFE050417394D7298004D48AC
:105BB000006840084000E107C90F084349490860F0
:105BC00000BF002C05D04748C0680005C00F002862
:105BD000F7D082E04348006A012109078843401852
:105BE000404908624048C068032108433E49C860F4
:105BF0003C480068022188436100022211400843AA
:105C00003849086000BF002C05D0364800694006BE
:105C1000C00F0028F7D060E03248006804218843B4
:105C2000A1000422114008432E49086000BF002C47
:105C300005D02C484069C004C00F0028F7D04CE0C4
:105C40002848006A0121090788434018254908624D
:105C500025484038C0680321890308432249403958
:105C6000C8602048006808218843E10008221140EC
:105C700008431C49086000BF002C05D01948806902
:105C80004006C00F0028F7D027E01648006A01211F
:105C90000904884340181349086214480068400802
:105CA0004000401C11490860142000F0C5FE0D485A
:105CB000006810218843210110221140084309493E
:105CC000086000BF002C05D00648C06B4003C00F21
:105CD0000028F7D001E0042700BF00BF014806629A
:105CE0003846F8BD00200040C00D024000240040AE
:105CF00030B589B000241422564904A8FDF736F8BF
:105D000054481430006803900020009001900290E5
:105D100051480188684601814F4841886846C180E2
:105D20004D488188684681804B48C18868464180DB
:105D300049482030018868460180484800680006CC
:105D4000450F2B0000F01AFE05042E303E4178006E
:105D50004248C0684005400D69460989884201D122
:105D6000089C1EE03D48C0684005400D6946C98852
:105D7000884201D1079C14E03848C0684005400DB6
:105D800069468988884201D1069C0AE03348C06888
:105D90004005400D69464988884201D1059C00E0D4
:105DA000049C4BE02E4C49E0684600882B49496929
:105DB0008905890D884202D16846C48901E0684698
:105DC00084893BE00124E40338E02448C06B800769
:105DD000800F032829D1684600892049C9684905F0
:105DE000490D884201D1089C20E06846C0881B49C3
:105DF000C9684905490D884201D1079C16E06846EB
:105E000080881649C9684905490D884201D1069C18
:105E10000CE0684640881149C9684905490D884227
:105E200001D1059C02E0049C00E00D4C0B48C06BC6
:105E3000C005000F444301E0002400BF00BF074835
:105E400000684005410F2046C8400446204609B07E
:105E500030BD0000A46D0000000C100000200040C8
:105E600000127A0010B50024FFF742FF04460448F0
:105E70000068C004810F2046C8400446204610BD7B
:105E80000020004010B5044600F06CFD0648006894
:105E90000721090288432102072212021140084308
:105EA00001490860002010BD0020004010B50446E4
:105EB00000F058FD064800680321C9028843E1024A
:105EC0000322D2021140084301490860002010BD9E
:105ED000002000401EB501460022002000900190E5
:105EE00002903D480388684603813B4843886846E2
:105EF000C38039488388684683803748C3886846AA
:105F00004380887803282DD168460089334BDB68AD
:105F10005B055B0D984202D1C878022820DC6846F8
:105F2000C0882E4BDB685B055B0D984202D1C878B8
:105F3000022815DC68468088284BDB685B055B0D12
:105F4000984202D1C87803280ADC68464088234B6F
:105F5000DB685B055B0D98420CD1C878062809DD2B
:105F600006201EBDC8781E4B58431E4B984201D9CF
:105F70000620F6E71948C06B03235B0398430B78B0
:105F80005B030324640323401843144BD86318466F
:105F9000C06B1C2398434B789B001C242340184360
:105FA0000E4BD8631846C06BFF23E1339843CB7880
:105FB0005B01FF24E13423401843084BD8631846A3
:105FC000C06B800880008B789B079B0F1843034BA6
:105FD000D8631046C5E70000000C10000020004008
:105FE00000127A00006CDC0210B501460020064A5F
:105FF000D26B0723DB039A43CB030724E40323403C
:106000001A43014BDA6310BD0020004070B504460E
:106010000D462A4621460248FFF76CFD002070BD60
:106020002020004010B501460020064A5269032393
:106030009B029A438B020324A40223401A43014B80
:106040005A6110BD0020004010B501460020054AED
:1060500012690C239A438B000C2423401A43014BF2
:106060001A6110BD0020004010B501460020054A0D
:10607000126930239A430B01302423401A43014B09
:106080001A6110BD0020004010B501460020054AED
:10609000926930239A430B01302423401A43014B69
:1060A0009A6110BD0020004070B5044600252646C8
:1060B00000F058FC06480068E02188437101E022A6
:1060C000114008430249086000F02CF8284670BDD2
:1060D0000020004001460020044A12699208920004
:1060E0008B079B0F1A43014B1A6170470020004039
:1060F00030B5024600200A4B9B690C24A343940050
:106100000C252C402343064CA36123469B699B0826
:106110009B008C07A40F2343014CA36130BD0000FA
:106120000020004010B5FFF7E3FD0149086010BDF5
:106130000000002010B50D4949888805800D0C49E4
:106140004969890A89020143094A5161074920398D
:1061500009894805400D1146C968C90AC9020143A9
:10616000D160FFF7DFFF00F0BDFB10BD200C100079
:10617000002000401CB5FFF7BBFD1F49884204D139
:10618000FFF770FE1C49884231D001211F20FFF724
:106190003DFF0220FDF7E6FD0120FFF755FF03203C
:1061A000FFF798FF0320FFF75FFF01210846FFF785
:1061B000E9FC0121684601700421417000218170D1
:1061C0000621C170FFF786FE0720FFF70DFF0121B2
:1061D0000420FFF7D7FC04216846017100214171BA
:1061E000817101A8FFF799FC0420FFF75DFF1420DF
:1061F00000F050FC1CBD0000006CDC0210B50B4828
:106200000088962811DB0D218020FEF797FB0028DF
:1062100004D00D218020FEF783FB03E00D218020B8
:10622000FEF7F6FB00200149088010BD04000020A5
:1062300010B500F001F910BD10B5C046C04610BD44
:1062400010B5C046C04610BD10B5C046C04610BD12
:1062500010B5C046C04610BD10B5C046C04610BD02
:1062600010B5C046C04610BD1CB501211C20FFF76B
:10627000CDFE0021684601700171417001218170DD
:106280000021C170012141716A4604210020FEF7FE
:106290006DFB04210020FEF7BBFB002168468170E6
:1062A0000121C1706A4607210020FEF75FFB6A46A4
:1062B00005210020FEF75AFB07210020FEF730FBE6
:1062C00005210020FEF72CFB01216846017081703A
:1062D0000021C1706A4603210020FEF747FB6A4691
:1062E00006210020FEF742FB6A4600214020FEF70F
:1062F0003DFB1CBD70B5044604210020FEF710FBD9
:10630000012000F099FB204600F062F800F018F838
:106310000546012000F090FB04210020FEF778FBE9
:10632000284670BDF8B504460D469020FFF7E2FF01
:1063300006B2D020FFF7DEFF07B226802F80F8BD1F
:1063400070B50025002607210020FEF7E9FA00BFFE
:1063500003210020FEF7F2FA0028F9D005210020E1
:10636000FEF7DEFA012000F067FB05210020FEF7B2
:106370004FFB012000F060FB05210020FEF7D0FA62
:1063800000BF03210020FEF7D9FA0028F9D100242C
:106390001AE005210020FEF7C3FA012000F04CFBB3
:1063A00005210020FEF734FB06210020FEF7C6FA87
:1063B0000646012000F040FB0B20011B30468840C0
:1063C000284385B2601CC4B20C2CE2DB284670BDA9
:1063D00070B5054605210020FEF7A2FA072100202E
:1063E000FEF79EFA012000F027FB002420E00720A2
:1063F000011B28460841C007C00F002804D0072110
:106400000020FEF705FB03E007210020FEF788FAD5
:1064100005210020FEF7FCFA012000F00DFB05210C
:106420000020FEF77DFA012000F006FB601CC4B2DC
:10643000082CDCDB70BD000010B500210846FDF71C
:1064400039F8012845D123480088401C214908809B
:1064500021480078401C2049087020480078401CE2
:106460001E4908701E480088401C1D4908801D48B0
:106470000088401C1B4908801B480078012804D173
:106480001A480078401C1949087000214020FEF786
:1064900055FA002805D116480078401C14490870A8
:1064A00004E014480078401C124908701248007833
:1064B000012804D111480088401C10490880FDF7CC
:1064C00005F9FDF7F1F8FDF7D5F800210846FCF7CE
:1064D000E3FF10BD0400002016000020170000207C
:1064E000B2000020C4000020B0000020E400002022
:1064F0000C0000200D000020E0000020E200002041
:1065000070B586B00446142101A800F084FA012178
:106510000820FFF77BFD00216846017141720721C9
:10652000C17101218172002101728171417101A942
:106530000020FDF709F801200004001B85B2294660
:106540000020FCF7C5FF01200004001B86B2314685
:106550000020FCF7CDFF00210846FCF79DFF00203E
:10656000FCF7E4FF012203210E20FDF78FFA002043
:10657000FCF7CEFF06B070BD10B5134800780128B7
:1065800020D1FEF753FAFEF7BFFA1048007805282D
:1065900009D10F4800F066F800200B4908700D493A
:1065A00008700A4908700B48007864280ADB01204B
:1065B0000949087000200749087004480078401C09
:1065C0000249087010BD0000B0000020F00000205B
:1065D000D4300000E4000020B100002010B500F02D
:1065E00005F810BD10B5C046C04610BD10B502215B
:1065F000480700F0C0F8002808D00221480700F042
:106600009BF800210120800700F096F8042108077C
:1066100000F0B1F8002808D00421080700F08CF839
:1066200000210120800700F087F800210120800769
:1066300000F0A1F800280FD000210120800700F011
:106640007BF80120800700F0EDF804490870084647
:1066500001780348FDF704FA10BD00000600002091
:10666000F400002010B586B00446062104A800F00E
:10667000D2F91021684600F0CEF940216846017039
:106680000021418003948180FFF7ECFB02900121FF
:106690001C20FFF7BBFC01210020FFF7B7FC002105
:1066A00068460174012181744175002141740175AE
:1066B000C17404AA09210020FEF758F9012209211A
:1066C0000020FEF79BF90121880700F035F86946A4
:1066D0000120800700F05CF8012168460174817494
:1066E0004175417400210175C17404AA0A2100207A
:1066F000FEF73CF901220A210020FEF77FF9FF2274
:1067000041320B490B48FEF7BBFA002101208007FC
:1067100000F012F800210120800700F022F8012289
:1067200000210620FDF7B2F9002006B010BD0000E0
:1067300004010020F400002070B504460D4600223C
:10674000294620461430FFF7D5F9002070BD70B5FA
:1067500004460D4601222946201DFFF7CBF90020F3
:1067600070BD70B504460D4601222946201DFFF775
:10677000C1F9002070BD70B504460D4600262946BB
:1067800020461030FDF77AFD0646304670BD000009
:10679000F0B585B005460C460127214903C904918F
:1067A000039000200290002C02D1042005B0F0BD1F
:1067B00000206860608861780843A18808432178D8
:1067C000084368602078402802D02078C02824D16F
:1067D000A088C117C90D09184912890003AA515A86
:1067E0008EB2E168B1400846FCF726FD0190A06832
:1067F000FCF722FD00900199FCF72AFC02903F2152
:106800000906029800F020FA0190FCF7D1FC80B252
:10681000A86104212846FFF79AFF00273846C5E7FC
:10682000DC6D000001460868C0B2704770B50446D0
:106830000D4600BF03212046FFF79DFF0028F9D039
:106840002068000A0002E9B20843206000BF01216D
:106850002046FFF790FF0028F9D001212046FFF7DE
:106860006BFF002070BD10B5C046C04610BD10B50E
:10687000C046C04610BD10B5C046C04610BD0000A1
:106880001E2002490860E12008607047800F004028
:1068900030B503460C460125204600F017F806489F
:1068A00040682021884359012022114008430249B1
:1068B00048600025284630BD800F00401E20024958
:1068C0000860E12008607047800F00400449496873
:1068D000090909010207120F1143014A516070476B
:1068E000800F00401B49086A096A01221207914380
:1068F0008918184A11621849C968072252031140C1
:10690000154AD16014494031C968144A1140124AED
:106910004032D16010490968114A11430E4A116092
:106920000D4940310968342211430B4A403211604D
:106930000949096A0A4A1143074A11620649403166
:10694000096A34221143044A403211620149086243
:106950007047000000200040800D0240CBFF000087
:10696000FF1F0000024803498860034888607047A1
:106970005A5A000000200040A5A5000030B474461B
:10698000641E2578641CAB4204D3635D5B00E3188E
:1069900030BC18471D46F8E710B5002819DB1A4A25
:1069A00003231B02D21883089B00D2588307DC0EF6
:1069B000FF23A3409A438B071B0E8407E40EA340DA
:1069C0001A43114B032424021B198408A4001A51F2
:1069D00018E00E4A03071B0F083B9B089B00D25888
:1069E0008307DC0EFF23A3409A438B071B0E84070B
:1069F000E40EA3401A43054B0407240F083CA408E7
:106A0000A4001A5110BD000000E100E01CED00E000
:106A100000BF7047704710B50A460146002900D1F3
:106A200010BD02E000230B70491C1346521E002BC0
:106A3000F8D100BFF4E7000070B5054611481249CF
:106A4000486100208861052008610FE000200E49A0
:106A500088610E490E480068FCF74AFA01210906D0
:106A60000C1A00BF08488069A042FBD828466D1E5A
:106A70000028EBD104480069400840000249086141
:106A800070BD0000FFFFFF0000E000E0A0860100F5
:106A90000000002070B505461148124948610020E9
:106AA00088610520086110E000200E4988617D2181
:106AB000C9000D480068FCF71BFA012109060C1AF1
:106AC00000BF08488069A042FBD828466D1E0028F8
:106AD000EAD104480069400840000249086170BDDD
:106AE000FFFFFF0000E000E00000002010B50246BC
:106AF0000B4690799C79A04213D100210CE0505CA8
:106B00005C5CA04205D1D01C445CD81C405C844233
:106B100001D0002010BD491C90798842EFDC012093
:106B2000F8E70020F6E710B53F20FEF7BDFDFDF7C2
:106B300065FC002801D0012010BD0020FCE7F8B55D
:106B4000044607212046FCF7CFF9002623E0012167
:106B5000B1400846FEF7A8FDFDF750FC0746002FA0
:106B600018D0002514E00120A840384000280ED09D
:106B7000A079401CA071A079401E2654A079401E27
:106B8000E11C0D54A079032801DB0120F8BD6D1C28
:106B9000082DE8DB761C062ED9DB0020C043F5E784
:106BA000FFF7E8FAFCF754FC00BF01210C20FCF7CA
:106BB000B3FF0028F9D1FDF7E9FB21490870FEF782
:106BC000CBFD3BE0FFF75CFEFFF718FB1D480078AC
:106BD000002808D1FEF7A0FCFCF7CAFEFEF768F813
:106BE000FEF728FE28E01748007802280CD1FEF7AF
:106BF00093FCFEF75DF8FDF719FFFDF785FFFEF743
:106C0000EDFCFDF715FA17E00E480078032803D0D5
:106C10000C48007804280FD10A480078032803D1D3
:106C200008210020FDF7F4FEFEF72EFAFCF7A0FE87
:106C3000FEF73EF8FEF7FEFDFFF79EFCC2E7000000
:106C4000F1000020B000002070B501250400ED0720
:106C50004C4020D4441A01D2001B0919C60D4B0028
:106C6000F2B2FF2A29D01B0E2CD000020C02D31A3C
:106C70002C43DC402843051910D2280A02D3401CBB
:106C80006D0611D0761EF6058019FF2A00DA70BD58
:106C9000C00DC00570BD694000F022F80120054319
:106CA000C541521C761CE8E764089C40C90161405C
:106CB0008900E7D10124A043E4E71B0E440200D081
:106CC000034870BD002AFCD1C00FC00770BD00BFD3
:106CD0000000C07F70B501250400ED074C4022D4B0
:106CE000441A02D26C40001B0919C60D4B00F2B2C7
:106CF000FF2A4BD01B0E50D000020C02D31A2C439B
:106D0000DC40A843051B05D5AD0019D36D08761EE0
:106D1000521E37D0F605280A01D2801970BD704185
:106D20006D0603D070BD6940FFF794FF9C400902D7
:106D30006140490001D0401E70BD0124A04370BDD8
:106D40006D081DD001202B0C01D12D0410302B0E0D
:106D500001D12D0208302B0F01D12D01001DAB0FE9
:106D600001D1AD00801CEB0F01D16D00401C6D0006
:106D7000361A121A680AF5054019012A02DB70BD9D
:106D8000002070BDC036300AC00770BD1B0E440223
:106D900001D1FF2B00D1024870BD002AF0D070BD98
:106DA0000000C07F00093D0000127A000024F400BA
:106DB0004086510100366E010080009620000000E0
:106DC000170000001B00000050460000E0220200F7
:106DD00018000000F0000000E803000004000000BC
:106DE0000300000004000000030000000200000097
:106DF000400040004000400040000000C000C000D3
:106E0000090008000600040003000F000700060048
:106E100080008000400040004000000000000E00A4
:106E20000F000C000D000E000B000C00818283840B
:106E300085868788898B8C8D8E8F91929395969776
:106E4000999A9C9D9FA0A2A3A5A7A8AAACAEB0B2F8
:106E5000B3B5B7B9BCBEC0C2C5C7C9CCCED1D4D7F3
:106E6000D9DCDFE2E6E9ECF0F3F7FAFE8C6E000025
:106E700000000020F4000000042D0000806F0000DE
:106E8000F40000201C100000202D000000093D002F
:106E900000000000000000000000000000000000F2
:106EA00000000000000000000000000000000000E2
:106EB00000000000000000000000000000000000D2
:106EC000000008090A0B0C0D070F101112131415FE
:106ED000161718191A1B1C1D1E1F202122232425DA
:106EE000262728292A2B2C0E2E2F00000000000018
:106EF000000000002C1C240D0F232E251E28201717
:106F000022261F2A2F19181529211B2B0E11102795
:106F1000161A0C0B0A0908141312000000000000D6
:106F200000000000000000000000000000FC000065
:106F300064FC0000000000000000000000000000F1
:106F400000000000000000005A01FE51A5FEFE00F6
:106F50000000000000000000000000005A02FEFED9
:106F6000A55A01FE51A55A0152A5000000000000DB
:106F70000000000000000000000000000000000011
:0400000500002CC10A
:00000001FF
